:020000040000FA
:060800007DEF2EF0120056
:02080600FEFFF3
:0608080029EF16F01200BA
:02080E00C250D6
:08081000020B01E0010E1200D1
:06081800FFEF26F01200C4
:02081E000C00CC
:10082000F55D00003003000009000000F45D0000E9
:100830004D03000001000000DD5D0000E302000048
:1008400017000000DA5D0000FD0100000300000059
:10085000D45D0000FA02000006000000CA5D00003E
:10086000260300000A000000C55D000041030000EF
:1008700005000000C15D0000460300000400000008
:10088000A85D0000CA020000190000000608000070
:100890004A03000002000000885D0000DD01000046
:1008A000200000007D5D00004C03000001000000FE
:1008B000D9CFE6FFE1CFD9FF020EE126780EF36E25
:1008C000FE0EDBCFF4FFF350F45C0DE3FE0EDB50C5
:1008D000860809E3FB0EDBCFE9FFFC0EDBCFEAFF66
:1008E0007F0EEF6E87D07F0EF36EFE0EDBCFF4FF30
:1008F000F350F45C41E2FE0EDB50FF0DF3507F0F2E
:10090000DE6EDD6AF80EDBCF2DF02E6A2DBE2E686E
:100910002DC01DF02EC01EF0DECF22F0DDCF23F063
:1009200007EC26F01BC02BF01CC02CF02B6C2C1EEF
:10093000000E2C222BC0DEFF2CC0DDFFD9CFE9FF3B
:10094000DACFEAFF640E226E236AEECF1DF0EDCF00
:100950001EF0ADEC25F01DC0EEFF1EC0EDFF7F0EBA
:10096000DE26000EDD22FB0EDBCFE9FFFC0EDBCF27
:10097000EAFFDFCFEFFF3ED0FE0EDB507F083AE20A
:10098000FE0EDB50810FDE6EDD6AF80EDBCF2BF042
:100990002C6A2BBE2C68D9CFE9FFDACFEAFF2BC037
:1009A00022F02CC023F0EECF1DF0EDCF1EF034EC82
:1009B00026F01BC0EEFF1CC0EDFFD9CFE9FFDACF58
:1009C000EAFF640E226E236AEECF1DF0EDCF1EF01B
:1009D000ADEC25F01DC0EEFF1EC0EDFF7F0EDE2644
:1009E000000EDD22FB0EDBCFE9FFFC0EDBCFEAFFC2
:1009F000DFCFEFFF780EF36EFD0EDBCFF4FFF35089
:100A0000F45C0DE3FD0EDB50860809E3F90EDBCF45
:100A1000E9FFFA0EDBCFEAFF7F0EEF6E87D07F0E85
:100A2000F36EFD0EDBCFF4FFF350F45C41E2FD0EFC
:100A3000DB50FF0DF3507F0FDE6EDD6AF80EDBCF6B
:100A40002DF02E6A2DBE2E682DC01DF02EC01EF07A
:100A5000DECF22F0DDCF23F007EC26F01BC02BF019
:100A60001CC02CF02B6C2C1E000E2C222BC0DEFF89
:100A70002CC0DDFFD9CFE9FFDACFEAFF640E226E8A
:100A8000236AEECF1DF0EDCF1EF0ADEC25F01DC0BA
:100A9000EEFF1EC0EDFF7F0EDE26000EDD22F90EFA
:100AA000DBCFE9FFFA0EDBCFEAFFDFCFEFFF3ED06F
:100AB000FD0EDB507F083AE2FD0EDB50810FDE6E4B
:100AC000DD6AF80EDBCF2BF02C6A2BBE2C68D9CF59
:100AD000E9FFDACFEAFF2BC022F02CC023F0EECFE3
:100AE0001DF0EDCF1EF034EC26F01BC0EEFF1CC055
:100AF000EDFFD9CFE9FFDACFEAFF640E226E236A59
:100B0000EECF1DF0EDCF1EF0ADEC25F01DC0EEFFD9
:100B10001EC0EDFF7F0EDE26000EDD22F90EDBCFBC
:100B2000E9FFFA0EDBCFEAFFDFCFEFFFD9CFE1FF1E
:100B3000E552E7CFD9FF1200D9CFE6FFE1CFD9FFC9
:100B4000020EE126750EF36EFE0EDBCFF4FFF350BE
:100B5000F45C54E2FE0EDB50FF0DF3507F0FDE6EAF
:100B6000DD6AF80EDB502D6E2E6A2DC01DF02EC0F2
:100B70001EF0DECF22F0DDCF23F007EC26F01BC005
:100B80002BF01CC02CF02B6C2C1E000E2C222BC02A
:100B9000DEFF2CC0DDFFD9CFE9FFDACFEAFF640E1C
:100BA000226E236AEECF1DF0EDCF1EF0ADEC25F0E6
:100BB0001DC0EEFF1EC0EDFF7F0EDE26000EDD2203
:100BC000DECF2BF0DDCF2CF07F0ED8802B56000E21
:100BD0002C567F0E2B26000E2C22F90EDBCFE9FFC0
:100BE000FA0EDBCFEAFF2BC0EFFFFB0EDBCFE9FFF6
:100BF000FC0EDBCFEAFFDFCFEFFFF3D0FE0EDB50C2
:100C000089084EE2FE0EDB50810FDE6EDD6AF80EC3
:100C1000DB502B6E2C6AD9CFE9FFDACFEAFF2BC06D
:100C200022F02CC023F0EECF1DF0EDCF1EF034ECFF
:100C300026F01BC0EEFF1CC0EDFFD9CFE9FFDACFD5
:100C4000EAFF640E226E236AEECF1DF0EDCF1EF098
:100C5000ADEC25F01DC0EEFF1EC0EDFF7F0EDE26C1
:100C6000000EDD22DECF2BF0DDCF2CF07F0E2B5ED1
:100C7000000E2C5A7F0ED8802B56000E2C56F90EE3
:100C8000DBCFE9FFFA0EDBCFEAFF2BC0EFFFFB0E55
:100C9000DBCFE9FFFC0EDBCFEAFFDFCFEFFFA1D018
:100CA000750EF36EFD0EDBCFF4FFF350F45C05E33D
:100CB000FD0EDB50890801E394D0750EF36EFD0E36
:100CC000DBCFF4FFF350F45C37E2FD0EDB50FF0D99
:100CD000F3507F0FDE6EDD6AF80EDB502D6E2E6A4C
:100CE0002DC01DF02EC01EF0DECF22F0DDCF23F090
:100CF00007EC26F01BC02BF01CC02CF02B6C2C1E1C
:100D0000000E2C222BC0DEFF2CC0DDFFD9CFE9FF67
:100D1000DACFEAFF640E226E236AEECF1DF0EDCF2C
:100D20001EF0ADEC25F01DC0EEFF1EC0EDFF7F0EE6
:100D3000DE26000EDD2245D0FD0EDB50890831E2B3
:100D4000FD0EDB50810FDE6EDD6AF80EDB502B6E80
:100D50002C6AD9CFE9FFDACFEAFF2BC022F02CC0F2
:100D600023F0EECF1DF0EDCF1EF034EC26F01BC0CB
:100D7000EEFF1CC0EDFFD9CFE9FFDACFEAFF640E2A
:100D8000226E236AEECF1DF0EDCF1EF0ADEC25F004
:100D90001DC0EEFF1EC0EDFF7F0EDE26000EDD2221
:100DA00010D0FB0EDBCFE9FFFC0EDBCFEAFF7F0E9E
:100DB000EF6EF90EDBCFE9FFFA0EDBCFEAFF7F0E15
:100DC000EF6EFB0EDBCFE9FFFC0EDBCFEAFFDFCFE0
:100DD000EFFFF90EDBCFE9FFFA0EDBCFEAFFDFCF43
:100DE000EFFFD9CFE1FFE552E7CFD9FF1200D9CF0E
:100DF000E6FFE1CFD9FF0B0EE1267F0E0201825DF7
:100E0000FF0DF3507F0FE66ED950090FE96EDACF70
:100E1000EAFFE552E750EE6EED6A780E825D0BE375
:100E20008251860808E37F0EF36E070EF3CFDBFFD7
:100E3000080EDB6AAFD0090EDBCF2BF00A0EDBCF3A
:100E40002CF0D8902C5004E67F0E2B5C000E2C5812
:100E500052E21D681E68090EDBCF22F00A0EDBCFBE
:100E600023F007EC26F01BC02BF01CC02CF07F0EEB
:100E70002B26000E2C22070E2BC0DBFF080E2CC0E9
:100E8000DBFFFA0EDB502D6E2E6A070EDBCF1DF056
:100E9000080EDBCF1EF02DC022F02EC023F007EC91
:100EA00026F01BC02BF01CC02CF02B6C2C1E000E4F
:100EB0002C22070E2BC0DBFF080E2CC0DBFFD95005
:100EC000070FE96EDACFEAFF640E226E236AEECFD7
:100ED0001DF0EDCF1EF0ADEC25F01DC0EEFF1EC0E5
:100EE000EDFFD950070FE96EDACFEAFF7F0EEE264D
:100EF000000EED224FD0090EDBCF2BF00A0EDBCF18
:100F00002CF02C3404E22B507F08000E2C5442E2CB
:100F1000090EDBCF2BF00A0EDBCF2CF07F0E2B5E01
:100F2000000E2C5A070E2BC0DBFF080E2CC0DBFF77
:100F3000FA0EDB502B6E2C6AD950070FE96EDACF10
:100F4000EAFF2BC022F02CC023F0EECF1DF0EDCF36
:100F50001EF034EC26F01BC0EEFF1CC0EDFFD95094
:100F6000070FE96EDACFEAFF640E226E236AEECF36
:100F70001DF0EDCF1EF0ADEC25F01DC0EEFF1EC044
:100F8000EDFFD950070FE96EDACFEAFF7F0EEE26AC
:100F9000000EED22070EDBCF2BF0080EDBCF2CF07E
:100FA0007F0E2B5E000E2C5A2B50DF6E780E020146
:100FB0007E5D0BE37E51860808E37F0EF36E070E1D
:100FC000F3CFDBFF080EDB6A8CD07F0E7E5D48E23C
:100FD000FF0E7E03F3507F0FE66ED950070FE96EC8
:100FE000DACFEAFFE552E750EE6EED6AFA0EDB501B
:100FF0002D6E2E6A070EDBCF1DF0080EDBCF1EF024
:101000002DC022F02EC023F007EC26F01BC02BF0E1
:101010001CC02CF02B6C2C1E000E2C22070E2BC09B
:10102000DBFF080E2CC0DBFFD950070FE96EDACFCB
:10103000EAFF640E226E236AEECF1DF0EDCF1EF0A4
:10104000ADEC25F01DC0EEFF1EC0EDFFD950070F1F
:10105000E96EDACFEAFF7F0EEE26000EED2241D0D8
:101060007E517F083EE27F0E7E5DE66ED950070F0F
:10107000E96EDACFEAFFE552E750EE6EED6AFA0E5E
:10108000DB502B6E2C6AD950070FE96EDACFEAFFDE
:101090002BC022F02CC023F0EECF1DF0EDCF1EF0C0
:1010A00034EC26F01BC0EEFF1CC0EDFFD950070F3B
:1010B000E96EDACFEAFF640E226E236AEECF1DF0EE
:1010C000EDCF1EF0ADEC25F01DC0EEFF1EC0EDFF14
:1010D000D950070FE96EDACFEAFF7F0EEE26000E39
:1010E000ED22070EDBCF2BF0080EDBCF2CF07F0EAE
:1010F0002B5E000E2C5A010E2BC0DBFFDFCF2BF036
:101100002C6A2BBE2C682BC0E6FF2CC0E6FF84DACD
:10111000E552E552020EF3CFDBFF010EDBCF2BF0E1
:101120002C6A2BBE2C682BC0E6FF2CC0E6FF74DABD
:10113000E552E552030EF3CFDBFF010EDBCF2BF0C0
:10114000000EE76E2B18E8AE02D02B3403D0E75028
:10115000D8802B5435E2DFCF2BF0000EE76E2B1832
:10116000E8AE02D02B3403D0E750D8802B5414E2E1
:10117000020EDBCF2BF0030EDB50D8802B5406E29F
:10118000010EF36E060EF3CFDBFF05D0020EF36EF9
:10119000060EF3CFDBFF13D0030EDBCF2BF0020ED6
:1011A000DB50D8802B5406E2030EF36E060EF3CF0D
:1011B000DBFF05D0040EF36E060EF3CFDBFF2AD063
:1011C000DFCF2BF02B3413E3020EDBCF2BF0030E1B
:1011D000DB50D8802B5406E2050EF36E060EF3CFDB
:1011E000DBFF04D0060EF36EF3CFDBFF13D0030E4C
:1011F000DBCF2BF0020EDB50D8802B5406E2070E1B
:10120000F36E060EF3CFDBFF05D0080EF36E060E6D
:10121000F3CFDBFFDB50080A01E192D00F0A01E1B6
:101220007DD0010A69E0030A55E0010A41E0070A9E
:101230002DE0010A19E0030A05E0040EDB6A050E41
:10124000DB6A90D0020EDB50E76E040EE7CFDBFFC7
:10125000020EDBCFE6FF030EDB50E552E75CFF0D2D
:10126000050EF3CFDBFF7ED0030EDB50E76E040EDE
:10127000E7CFDBFF030EDBCFE6FF020EDB50E552CC
:10128000E75CE76E050EE7CFDBFF6CD0030EDBCF2C
:10129000E6FF020EDB50E552E75CE76E040EE7CF97
:1012A000DBFF030EDB50E76E050EE7CFDBFF5AD006
:1012B000020EDBCFE6FF030EDB50E552E75CFF0DCD
:1012C000040EF3CFDBFF020EDB50E76E050EE7CF17
:1012D000DBFF48D0020EDB50FF0D040EF3CFDBFF27
:1012E000020EDBCFE6FF030EDB50E552E75CE76E54
:1012F000050EE7CFDBFF36D0030EDB50FF0D040EEB
:10130000F3CFDBFF030EDBCFE6FF020EDB50E5522F
:10131000E75CFF0D050EF3CFDBFF24D0030EDBCF20
:10132000E6FF020EDB50E552E75CFF0D040EF3CF43
:10133000DBFF030EDB50FF0D050EF3CFDBFF12D0FA
:10134000020EDBCFE6FF030EDB50E552E75CE76EF3
:10135000040EE7CFDBFF020EDB50FF0D050EF3CFCF
:10136000DBFF00D0040EDB507F0FE66EFD0EDBCFFF
:10137000E9FFFE0EDBCFEAFFE552E750EF6E050E08
:10138000DB507F0FE66EFB0EDBCFE9FFFC0EDBCF01
:10139000EAFFE552E750EF6E00D0D9CFE1FFE5520A
:1013A000E7CFD9FF1200CD8ACD98CD92CD96CD94BE
:1013B000CD8E9E909D80CD801200B18EB19CB19655
:1013C000B18AB188B194B192B180A192A082120089
:1013D000D9CFE6FFE1CFD9FFFE0EDB50030A21E0B3
:1013E000020A01E037D0FD0EDB500AE10301302B89
:1013F0000A0E305D04E1312B000E3223306B10D029
:10140000FD0EDB5006E031C3F3FF32C3F4FF22D000
:1014100007D0FD0EDB50020803E10301316B326B94
:1014200019D0FD0EDB5005E10301332B000E3423F0
:1014300010D0FD0EDB5006E033C3F3FF34C3F4FFDE
:1014400009D007D0FD0EDB50020803E10301336B26
:10145000346B00D0E552E7CFD9FF1200D9CFE6FFB9
:10146000E1CFD9FFFD0EDB5012E0FE0EDB50010A8A
:1014700008E0010A01E00AD00301352B000E3623F3
:1014800005D00301372B000E382300D013D0FE0EF9
:10149000DB50010A09E0010A01E00CD035C3F3FF7B
:1014A00036C3F4FF07D006D037C3F3FF38C3F4FFC9
:1014B00001D000D0E552E7CFD9FF1200D9CFE6FF27
:1014C000E1CFD9FFFE0EDB5002E18D8401D08D9477
:1014D000E552E7CFD9FF1200D9CFE6FFE1CFD9FF20
:1014E000020EE126F30EDBCF1DF0F40EDBCF1EF073
:1014F000D60E1D1802E1E8681E185BE02A0E1D18C2
:1015000001E11E5004E02A0EF36EF46A7FD0FD0E56
:10151000DBCF2DF0FE0EDBCF2EF0F90EDB502D5C75
:101520002B6EFA0EDB502E582C6E2B502C100DE12A
:10153000F50EDBCFE9FFF60EDBCFEAFF2A0EEE6EEB
:10154000ED6AF36EF46A62D061D0FD0EDBCF33F04A
:10155000FE0EDBCF34F0F90EDB50335C316EFA0E49
:10156000DB503458326EFB0EDBCF2FF0FC0EDBCF9E
:1015700030F0F70EDB502F5C2D6EF80EDB5030583C
:101580002E6E2DC01DF02EC01EF031C022F032C0D4
:1015900023F0ADEC25F01DC02BF01EC02CF0F50E95
:1015A000DBCFE9FFF60EDBCFEAFF2BC0EEFF2CC04E
:1015B000EDFFFB0EDBCF2DF0FC0EDBCF2EF0F50E9A
:1015C000DBCFE9FFF60EDBCFEAFFEECF1DF0EDCF6C
:1015D0001EF0FD0EDBCF22F0FE0EDBCF23F007EC7A
:1015E00026F01B502D5C2B6E1C502E582C6E2BC0E1
:1015F000DEFF2CC0DDFFDECF2BF0DDCF2CF02BC0CB
:10160000F3FF2CC0F4FF02D001D000D0D9CFE1FF0E
:10161000E552E7CFD9FF1200D9CFE6FFE1CFD9FFDE
:10162000FD0EDBCF2BF0FE0EDBCF2CF00001800E89
:101630002C1410E01D681E68FD0EDBCF22F0FE0E9C
:10164000DBCF23F007EC26F0FD0E1BC0DBFFFE0E08
:101650001CC0DBFFFD0EDBCF2BF0FE0EDBCF2CF032
:101660002BC0F3FF2CC0F4FF00D0E552E7CFD9FF29
:02167000120066
:0E16720075EC10F0FB0EDBCFF3FFDB06F35040
:1016800000090AE0C3EC10F0FA0E2EEC11F0F3E1C1
:101690002C1CF1E1010E01D0000EA4EF10F075EC4E
:1016A00010F03B0EE12402E3E168E652E16E010E28
:1016B000DB6A020EDB6AF90EDBCFF6FFFA0EDBCF38
:1016C000F7FFFB0EDBCFF8FF0800F550DF6EDF50B1
:1016D00002E1CAEF0FF0250EDF5C02E0BDEF0FF074
:1016E000030EDB6A040EDB6A050EDB6A060EDB6A9C
:1016F000070EDB6ADDEC0FF02D0EDF5C0CE02B0E2D
:10170000DF5C09E0200EDF5C06E0230EDF5C03E017
:10171000300EDF5C1AE1DF50300A14E0130A0FE0EC
:10172000030A0AE00B0A05E0060AE4E1030EDB8087
:10173000E1D7030EDB82DED7030EDB84DBD7030E9B
:10174000DB86D8D7030EDB88D5D72A0EDF5C1BE1FA
:10175000D9EC0FF027EC10F010E0030EDB801D68D1
:101760001E68130EDBCF22F0140EDBCF23F007EC44
:1017700026F0040E1BC0DBFF03D0130E10EC10F09C
:10178000DDEC0FF00BD0090EDB6A7EEC10F003E00D
:10179000F2EC10F0FAD7090E10EC10F0030EDBB0EB
:1017A000DB982E0EDF5C1BE1DDEC0FF02A0EDF5C18
:1017B0000BE1D9EC0FF027EC10F003E1130E62EC13
:1017C00010F0DDEC0FF00BD0090EDB6A7EEC10F0B0
:1017D00003E0F2EC10F0FAD7090E62EC10F0680E9C
:1017E000DF5C07E1DDEC0FF0680EDF5C1DE1030E4E
:1017F00018D0740EDF5C17E07A0EDF5C14E0480E40
:10180000DF5C06E0540EDF5C03E05A0EDF5C02E1B1
:10181000020E07D06C0EDF5C03E06A0EDF5C04E1B1
:10182000010EB5EC10F0C9DBDF506E0A01E181D387
:101830001E0A01E192D1200A01E18FD13F0A01E1A4
:1018400049D11A0A01E146D10D0A01E143D1200A2A
:1018500001E140D13A0A01E13DD1200A01E13AD14A
:10186000260A01E135D10D0A01E132D11A0A01E15E
:10187000D9D0200A4AE0300A1FE0460A0EE0250AC5
:1018800001E085D3D950F90FE96EFF0EDA20EA6E38
:10189000010EEE5E000EEE5AEE5AC3EC10F0250E6D
:1018A000E66E95DB03E12C1C01E16BD3BFEC10F07D
:1018B00001E26DD3DB2A6BD3080EDB6A040EDB502A
:1018C000010806E2040EDB0487EC10F0DB508BDB32
:1018D000080EDB5009E0030EDB50010B05E172DB63
:1018E00001E04FD3080EDB6A64DBEFCFDFFF37EC9C
:1018F00011F003E12C1C01E144D3BFEC10F001E333
:10190000DB2A60DB01E143D33CD3070EDB50020846
:101910000FE103EC11F0030ECAEC10F00E0EEECF47
:10192000DBFF0F0EEECFDBFF100EEECFDBFF20D084
:10193000F70EDBCF2EF0F80EDBCF2FF0020E2E5E6F
:10194000000E2F5AF70E2EC0DBFFF80E2FC0DBFF64
:101950002EC0E9FF2FC0EAFFBAEC10F02D6A0E0E80
:101960002BC0DBFF0F0E2CC0DBFF100E2DC0DBFFEA
:101970000E0EDBCFE6FF0F0EDBCFE6FF100EDBCF48
:10198000E6FFD8EC2BF0E552E552E552130E1CC0F1
:10199000DBFF140E1DC0DBFF060EDB5005E0130E4F
:1019A000FEEC10F001E26ADB22EC11F002E2130E11
:1019B00037DBE5EC10F006E0040EFEEC10F002E27E
:1019C000050E2EDB030EDBB005D0FCDA01E0D9D228
:1019D000080EDB6A090EDB6A0E0EDBCFF6FF0F0E78
:1019E000DBCFF7FF100EDBCFF8FF0800F550DF6EFE
:1019F000DF5014E028EC11F011E237EC11F003E1B4
:101A00002C1C01E1BED2BBDB01E3DB2A090EDB2A81
:101A1000D9500E0FE96E000ECBDBE7D7D3DA01E128
:101A2000B6D2AFD2C6DA110EEECFDBFF120EEDCF7B
:101A3000DBFF110EDBCFE6FF120EDBCFE6FFCAECB9
:101A40002BF0E552E552130EF3CFDBFF140EF4CF6B
:101A5000DBFF060EDB5004E0130ED0DB01E20EDBF1
:101A600022EC11F002E2130EDBDAAFDB05E0040E2C
:101A7000C5DB02E2050ED4DA030EDBB005D0A2DA34
:101A800001E07FD2080EDB6A090EDB6A110EDBCFA4
:101A9000E9FF120EDBCFEAFFEFCFDFFFDF5014E0EC
:101AA000D7DB12E2E4DB03E12C1C01E16AD267DB45
:101AB00001E3DB2A090EDB2A110EDB2ADBCFE9FF6B
:101AC000120EE8E3DB2AE6D77DDA01E160D259D2D3
:101AD000030EDB8E070EDB0410E195DB040E5ADBF0
:101AE0000A0EEECFDBFF0B0EEECFDBFF0C0EEECFC0
:101AF000DBFF0D0EEECFDBFF6CD0070EDB500308D3
:101B00002CE1030EDBAE0DD0B2DA020E76DAEFCFA7
:101B10002BF02C6A2D6A2E6A2BAE39D02C682D68DA
:101B200035D0F70EDBCF2CF0F80EDBCF2DF0020E08
:101B30002C5E000E2D5AF70E2CC0DBFFF80E2DC0C8
:101B4000DBFF2CC0E9FF2DC0EAFFEFCF2BF00A0E20
:101B50002BC0DBFF0B0EDB6A38D0070EDB50020810
:101B600009E1030EDBAE04D059DB2DAE10D00ED050
:101B700055DB0DD0030EDBAE12D079DA020E3DDA62
:101B8000F9DA2D6A2E6A2CAE02D02D682E68E2DAC0
:101B90000C0E2DC0DBFF0D0E2EC0DBFF1AD0F70E92
:101BA000DBCF2DF0F80EDBCF2EF0020E2D5E000EF7
:101BB0002E5AF70E2DC0DBFFF80E2EC0DBFF2DC016
:101BC000E9FF2EC0EAFFD6DAC5DA0C0EDB6A0D0E8D
:101BD000DB6A060EDB5005E1010EF36E050EF3CF56
:101BE000DBFF150EDB6A160EDB6AD950370F2B6E42
:101BF000000EDA202C6E390E2BC0DBFF3A0E2CC003
:101C0000DBFF380EDB6A080EDB6A0A0EAEDADF5045
:101C1000780A12E0200A10E0280A0CE0200A0AE004
:101C20003F0A06E00D0A02E0200A08E1020E05D094
:101C3000080E03D0080EDF26100E97DA030EDBBE67
:101C400002D0DB92DB94DB50800B26E08ADA030EB5
:101C5000EB50000AE8AE02D0D89008D0000EEE5C3F
:101C6000000EEE58000EEE58000EEE5815E211DA96
:101C70002068216822682368D1EC2CF00A0E17C076
:101C8000DBFF0B0E18C0DBFF0C0E19C0DBFF0D0EC7
:101C90001AC0DBFF2D0E08D0030EDBA202D02B0EE4
:101CA00003D0DBA408D0200EF36E170EF3CFDBFFBA
:101CB000150EDB2A02D0170EDB6A050EDB5003E19E
:101CC000B5D901E189D06C0E2B6E5D0E2C6E000E25
:101CD0002D6E070EDBCF2EF02F6A306A316A2EC0D0
:101CE00020F02FC021F030C022F031C023F0D1D934
:101CF000FEEC2DF02B501724F36E2C501820F46EB0
:101D00002D501920F86EF4CFF7FFF3CFF6FF08003F
:101D1000090EF5CFDBFF580EDF5C0FE1610EF36EAD
:101D2000090E79D90AE3200E2B6E090EDBCFE7FFEF
:101D30002B50E75E090EE7CFDBFF070EDBCF2BF062
:101D40002C6A2D6A2E6A0DDA2BC020F02CC021F0EF
:101D50002DC022F02EC023F0EECF1BF0EECF1CF0F2
:101D6000EECF1DF0EFCF1EF0FEEC2DF01EC0EDFF0C
:101D70001DC0EDFF1CC0EDFF1BC0EFFF390EDBCF18
:101D8000E9FFDB063A0EDBCFEAFF01E2DB06090ED4
:101D9000DBCFEFFF150EDB2A49D995E1030EDBA659
:101DA0001DD06F0EDF5C06E1BFD918E3150EDB28EE
:101DB00059DA14D0780EDF5C09E0580EDF5C06E0DB
:101DC000620EDF5C03E0420EDF5C08E1020EF36EA0
:101DD000160EF3CFDBFF02D0150EDB6A030EDB50CD
:101DE000100B0EE0040EDBCF2BF0050EDB50D8807D
:101DF0002B5406E2060EDB5003E1040EDB5032DA10
:101E000093D90AE2050EDBCFE7FF150EDB50E75E44
:101E1000050EE7CFDBFF02D0050EDB6A040EDBCF39
:101E20002BF0160E43D9D8802B5414E2160EDBCFBC
:101E3000E6FF150EDBCFE6FF040EDBCFE6FF050E57
:101E4000DB50E552E75CE552D880E754E552D88094
:101E5000E7545DD9030EDB50010B0BE1080EDB509C
:101E600008E0B0D801E08DD0080EDB50BCD8080ED9
:101E7000DB6A170EDB5007E086D9170EEFD903E1B6
:101E80002C1C01E17ED0160EDB5016E07CD9300E02
:101E9000E66E9DD802E12C1C74E075D9DFCFE6FF19
:101EA0008FEC2CF0E552E552E552F4CF2CF0000116
:101EB000F31C02E12C1C65E0050EDBCF2BF0160EA7
:101EC000DB50D8802B5409E2050EDBCFE7FF160E5E
:101ED000DB50E75E050EE7CFDBFF300EE66E050E4A
:101EE000C9D94FE1390EDB2ADBCFE9FF3A0E01E316
:101EF000DB2ADBCFEAFF090EEFCFDBFFDB500EE082
:101F000042D9090EABD902E12C1C3BE0390EDB2A89
:101F1000DBCFE9FF3A0EEDE3DB2AEBD753D831E113
:101F2000160EDBCFE6FF080EC1D8E552E7245BD8DA
:101F30002ED0070EDB50030A1CE0010A14E0030A4E
:101F400007E079D9DBCFEEFF020EDBCFEDFF1FD02C
:101F5000F3D8306A2EAE02D02F6830682AD8BAD8AB
:101F600030C0EEFF14D0E8D82EBE2F6822D8B2D8E9
:101F70000ED061D9DBCFEFFF0AD079D905E12C1C57
:101F800003E1F368F46810D0FAD801E3DB2A77D9CB
:101F900064EF0BF0010EDBCF2BF0020EDBCF2CF049
:101FA0002BC0F3FF2CC0F4FFD9CFE1FFDACFE2FF63
:101FB000CBD029D9020ECAEF10F061D90800F55034
:101FC000DF6E1200200EE66E080E3AEF11F08FEC75
:101FD0002CF0E552E552E552F3CF2BF0F4CF2CF084
:101FE0000001F31C12002B6E2C6AD950010F4DD941
:101FF0002B50EE262C50ED2212002F5E000E305A90
:10200000F70E2FC0DBFFF80E30C0DBFF2FC0E9FF5B
:1020100030C0EAFF1200DBCFF4FFF350F45C120093
:10202000DB50E76E040EE7CFDBFF12000A0EDBCFBA
:102030002BF00B0EDBCF2CF00C0EDBCF2DF00D0EAA
:10204000DBCF2EF02B502C102D102E101200130E63
:10205000EECFDBFF140EEDCFDBFF130EDBCF2BF04B
:10206000140EDBCF2CF00001800E2C141200F70EA2
:10207000DBCF2FF0F80EDBCF30F01200050EDB5077
:10208000E66ED950130F01D9E552E750EE6EED6AB6
:1020900012000A0EDBCF1BF00B0EDBCF1CF00C0E78
:1020A000DBCF1DF00D0EDBCF1EF01200DBCFE6FF05
:1020B000150EDBCFE6FF050EDB50E552E724E552B7
:1020C000E7241200DB50CED8010EF36E060EF3CFDC
:1020D000DBFF1200EE50EFCFEAFFE96E2DC0EEFFFE
:1020E0002EC0EEFF2FC0EEFF1200D9CFE6FFDACFF1
:1020F000E6FFE1CFD9FFE2CFDAFF1200DFCFE6FF44
:10210000E66A6BEC2EF0E552E552F3501200E76EF2
:10211000080EE7CFDBFF1200EECF2BF0EECF2CF056
:10212000EFCF2DF02E6A1200050EDBCF2BF0150E2F
:10213000DB50D8802B541200010EDBCF2DF0020EA5
:10214000DBCF2EF02F6A1200E552E5CFDAFFE7CFA2
:10215000D9FF12000A0E2BC0DBFF0B0E2CC0DBFFD9
:102160001200D9500A0F45EF11F0F36E070EF3CFAE
:10217000DBFF1200EECF2BF0EFCF2CF01200010EA0
:10218000DB2A020E1200FC0EDBCFE6FFFD0EDBCFDA
:10219000E6FF12002B5E000E2C5AF70E2BC0DBFF61
:1021A000F80E2CC0DBFF2BC0E9FF2CC0EAFF1200A9
:1021B000DA20EA6EEF2AEECFF6FF000EEF22EECF26
:1021C000F7FFEF22EECFF8FF1200040EDBCFE6FFA1
:1021D000130EDB50E552E75C9ADFDB5004DF060E9E
:1021E000DB501200090EDB500A0DF350DF24D00F34
:1021F000E76E090EE7CFDBFFDDEF0FF0DB50F36E8C
:10220000050E0BEF10F0F70EDBCF2BF0F80EDBCF47
:102210002CF01200DFCFE6FFE7EF0FF028DF030E10
:10222000ECDE8CEF10F039EC0BF0E552E552E552A4
:10223000E55200091200BDDEEE50EFCFEAFFE96E75
:10224000010E1200130EDB50F36E040E0BEF10F0B4
:10225000040EDB50F36E090E0BEF10F0DBCFE6FF40
:10226000E7EF0FF0E76E050EE7CFDBFF12008BDF25
:102270000AEF11F0DBCFE6FF86DF13EF11F0D95044
:10228000F90FE96EFF0ED8EF10F0E96E000EDA20BC
:04229000EA6E1200E0
:0C229400938A93889386938499829980A2
:1022A000938E938C9A849A82998699849A8A9A8832
:1022B00094809A869A8E9A9C919C02017F0E636FFD
:1022C00063C262F263C261F263C260F263C25FF230
:1022D00063C25EF263C25DF263C25CF26B6F6BC29B
:1022E0006AF26BC269F26BC268F26BC267F26BC2D0
:1022F00066F26BC265F26BC264F2000EE66EE66ACD
:10230000E66EE66AE66EE66AE66EE66A8BEC17F063
:10231000F56E080EE15EF5502EEC24F047EC24F04B
:10232000D4EC1CF07EEC22F0090EE66EE66A8AEC34
:1023300029F0E552E5520301396F390503E0020E39
:10234000395D01E10CD0020E396F39C3E6FF090E89
:10235000E66EE66AA4EC29F0E552E552E552F08813
:10236000D3EC09F0DDEC09F00201010ECA6F580E42
:10237000E66E020EE66E49EC17F0E552E552D0EF3C
:1023800016F0D9CFE6FFE1CFD9FF040EE126780E93
:10239000E66E020EE66E30EC17F0E552E5520101F2
:1023A000DF2B000EE023E12BE223E3513BE10A0E99
:1023B000E11901E1E25110E1690E2B6E550E2C6E10
:1023C0002D6A2BC0E6FF2CC0E6FF2DC0E6FFFDEC1A
:1023D0002BF0E552E552E55201013C0EE11901E115
:1023E000E25102E180EC23F02C0E0101E11902E13F
:1023F000010EE21917E18CEC23F0C2EC23F0630E1E
:102400002B6E550E2C6E2D6A2BC0E6FF2CC0E6FFFE
:102410002DC0E6FFFDEC2BF0E552E552E55201013F
:10242000010EE36F1E0EDF5D000EE05920E32C0E5F
:10243000E15D010EE2591BE3AEEC23F0020EF3CF97
:10244000DBFF030EF4CFDBFF85EC22F0F3CFDEFFE2
:10245000F4CFDDFFDBEC22F01BC03AF31CC03BF3F2
:102460001DC03CF31EC03DF30101DF6BE06BBAEC15
:1024700019F0DAEC29F01CD86BC2E6FF6AC2E6FF5D
:1024800069C2E6FF68C2E6FF02EC22F0E552E552BF
:10249000E552E552580EE66E020EE66E49EC17F074
:1024A000E552E552D9CFE1FFE552E7CFD9FF12005F
:1024B0008150400B01E0010E0101EA5D20E0EB2BB1
:1024C0008150400B01E0010EEA6FEBC12BF02C6A4A
:1024D0002BBE2C682BC0E6FF2CC0E6FF480E2D6EED
:1024E000550E2E6E2F6A2DC0E6FF2EC0E6FF2FC0C0
:1024F000E6FFFDEC2BF0F56E050EE15EF550815028
:10250000800B01E0010E0101EF5D1DE0F02B000EDC
:10251000F1238150800B01E0010EEF6FF0C1E6FF67
:10252000F1C1E6FF2C0E2B6E550E2C6E2D6A2BC0C2
:10253000E6FF2CC0E6FF2DC0E6FFFDEC2BF0F56EAC
:10254000050EE15EF55002017A51020B01E181D0E6
:102550007B51020B01E17DD00101EC2B000EED233C
:10256000ECC12BF0EDC12CF0200E226E236A2BC0A3
:102570001DF02CC01EF0ADEC25F019C02BF01AC0D8
:102580002CF02B502C1016E1010EE66EE1DAE5522C
:10259000130E2B6E550E2C6E2D6A2BC0E6FF2CC031
:1025A000E6FF2DC0E6FFFDEC2BF0E552E552E552CB
:1025B000ECC1EEF10A0E0101EE252D6E2E6A2DBE44
:1025C0002E68ECC11DF0EDC11EF02DC022F02EC012
:1025D00023F0ADEC25F02EAE04D0196C1A1E000EBF
:1025E0001A2219C02BF01AC02CF02B502C1016E117
:1025F000E66AAEDAE552020E0101EE27FA0E2B6E04
:10260000540E2C6E2D6A2BC0E6FF2CC0E6FF2DC0A9
:10261000E6FFFDEC2BF0E552E552E5520101ED3508
:1026200004E2EC51C808000EED5513E2E66A90DAB8
:10263000E552D50E2B6E540E2C6E2D6A2BC0E6FF84
:102640002CC0E6FF2DC0E6FFFDEC2BF0E552E55275
:10265000E5520101140EE51901E1E65102E1E56BD5
:10266000E66BE52B000EE62302017BA93ED07B51F1
:10267000200B17E00301390514E10101E45111E1D8
:102680000301020E396F39C3E6FF090EE66EE66AF2
:10269000A4EC29F0E552E552E5520101010EE46F88
:1026A00024D002017B51200B18E0020E0301395D9A
:1026B00014E10101E45111E10301010E396F39C345
:1026C000E6FF090EE66EE66AA4EC29F0E552E55253
:1026D000E5520101010EE46F08D002017B51200B8D
:1026E00004E10101E40501E1E46B0301390511E1B5
:1026F000640EE66E5D0EE66E020EE66E5C0EE66E33
:10270000020EE66EF7EC06F0F56E050EE15EF55092
:1027100017D0020E395D14E1640EE66E5D0EE66EB2
:10272000020EE66E5C0EE66E020EE66E7FC2E6FFFD
:102730007EC2E6FF58EC04F0F56E070EE15EF55040
:102740008150100B01E0010EE66E5EEC0AF0E552DE
:102750004DDA99C25AF29AC25BF20201716B20D82B
:10276000000902E00201718181A802D00201718397
:1027700002017AA902D00201718502017BAD02D06B
:10278000020171870201A70E726F02017BAD02D0B8
:1027900051D805D002017F0E5F6F03013E6B12001E
:1027A00002017B51010B05E00101F25102E1F351FD
:1027B00009E002017A51010B0DE00101F2510AE139
:1027C000F35108E18D809190010EF26FF36F0301D8
:1027D0003F6F2CD002017B51010B05E00101F20596
:1027E00002E1F35109E002017A51010B0DE0010110
:1027F000F2050AE1F35108E191808D90F26B010E30
:10280000F36F03013F6B12D09150010B03E18D5028
:10281000010B03E091908D9009D002017B51010BD7
:1028200005E17A51010B02E10101F36B03013F5114
:1028300000D01200D9CFE6FFE1CFD9FF030EE12689
:102840001F0EDF6E020181512B6E2C6A2C3404E2C4
:102850002B50C808000E2C540EE27AA905D0010EA8
:10286000E66E76D9E55203D0E66A72D9E5520201E6
:10287000D70E5F6F2BD1320E815D3EE20201D70E83
:102880005F6F02017A51100B05E00101F75102E17F
:10289000010EF76F0101F7512EE0F82B280EE76EBD
:1028A000F819E8AE02D0E73402D0E750F85D05E24F
:1028B000010EE66E4DD9E5521ED0500EE76EF819A6
:1028C000E8AE02D0E73402D0E750F85D07E2E66AEE
:1028D0003FD9E5520201D70E5F6F0DD0500EE76E63
:1028E000F819E8AE02D0F83503D0E750D880F85593
:1028F00002E2F86BF76BEAD081512B6E2C6AD8900C
:102900002C5004E6C80E2B5C000E2C5801E3DED0E0
:102910008151320801E3DAD07AA905D0010EE66EC2
:1029200017D9E55205D0E66A13D9E55203013E6B8B
:10293000010EE66EE66EE8EC09F0E552E552F3CFE3
:102940002BF0F4CF2CF00101F5512D6E2E6A2D5095
:102950002B1802E12E502C1801E1B7D0010EE66EC3
:10296000E66EE8EC09F0E552E552F3CFF5F1F098A8
:10297000010EE66EB1D8E5521BC02BF01CC02CF046
:102980001DC02DF01EC02EF02BC01CF02CC01DF061
:102990002DC01EF02EC01FF052EC26F01EC0F4F128
:1029A000F4C170F2020EE66E97D8E552020EE66EA2
:1029B000010EE66EE8EC09F0E552E5523EC32BF05D
:1029C0002C6A2BBE2C682BC0E6FF2CC0E6FF020150
:1029D0005F51E66EE66A0101F451E66EE66AB60EF4
:1029E0002D6E540E2E6E2F6A2DC0E6FF2EC0E6FF10
:1029F0002FC0E6FFFDEC2BF0F56E090EE15EF55001
:102A000003013E51010A19E0010A01E05DD0020113
:102A1000D70E5F6F0C0E0101E76EF619E8AE02D01B
:102A2000F63503D0E750D880F65505E20301010ED4
:102A30003E6F0101F66BF62B47D00101F45114E112
:102A4000A40E2B6E540E2C6E2D6A2BC0E6FF2CC0EC
:102A5000E6FF2DC0E6FFFDEC2BF0E552E552E55216
:102A60000201D70E5F6F22D0F451DF5C02081EE234
:102A7000F451DF5CE66ED950010FE96EDACFEAFF60
:102A8000E552E750EE6EED6A010EDBCF2BF0020E41
:102A9000DBCF2CF0D8902C5004E6050E2B5C000EFA
:102AA0002C5804E2010EDB5002015F2702015F5146
:102AB0002B6E2C6A2C3404E22B50FF08000E2C5491
:102AC00002E2FE0E5F6F00D001D0F088D9CFE1FFA7
:102AD000E552E7CFD9FF1200D9CFE6FFE1CFD9FF0A
:102AE000FE0EDB50020A2CE0030A08E0010A01E0B6
:102AF0002BD00101F92B000EFA2326D0F9C12FF0BB
:102B0000FAC130F0020ED8902F363036E806FBE1DD
:102B10002FC01DF030C01EF098EC25F01CC02BF02B
:102B20001DC02CF01EC02DF01FC02EF02BC01BF0BE
:102B30002CC01CF02DC01DF02EC01EF005D004D0FE
:102B40000101F96BFA6B00D0E552E7CFD9FF120013
:102B5000D9CFE6FFE1CFD9FF0101FB510BE1FC51D9
:102B600009E1FE0EDB0406E18C8E9190010EFB6FF5
:102B7000FC6F1DD0FB050BE1FC5109E1FE0EDB50A3
:102B800006E191808C9EFB6B010EFC6F10D0915082
:102B9000010B03E18C50800B03E091908C9E07D0D9
:102BA000FE0EDB500301405D02E00101FC6BFE0EF6
:102BB000DBCF40F3010EE66E8FDFE5521BC02BF03A
:102BC0001CC02CF01DC02DF01EC02EF02BC01CF020
:102BD0002CC01DF02DC01EF02EC01FF052EC26F0B0
:102BE0001EC070F2E552E7CFD9FF120002017F0E3E
:102BF000666F1E0E0201855D03E31E0E895D04E211
:102C00000201FE0E666F1AD085512B6E2C6A2C3491
:102C100004E22B50C808000E2C540AE389512D6E93
:102C20002E6A2E3404E22D50C808000E2E5403E202
:102C30000201666B03D002017F0E666F1200120064
:102C4000D9CFE6FFE1CFD9FFE552E7CFD9FF120098
:022C5000120070
:0E2C5200DACFE4FFE2CFDAFFE9CFE4FFEACF0A
:102C6000E4FFE652F2A202D0A0D802D09EB6CCD8A1
:102C7000E552E5CFEAFFE5CFE9FFE5CFDAFF110046
:102C8000E66A010EE66E050EE66E3DEC2DF0E552AD
:102C9000E552E5521200070EB46E000E886E876E84
:102CA000866E856E846E836E826E816E806E916E8E
:102CB000906E8F6E8E6E8D6E8C6E8B6E8A6E896E40
:102CC0002F0E926EFD0E936E9C0E946E956A966A10
:102CD0009768040E986E0E0E9A6E9968C16AF19EFE
:102CE000B0989C8EA26A9F6AA06A9D6AA36AA56A30
:102CF000C7DF9F86D08E9E969D86F06AF288F09EF2
:102D0000F098F192F09AF16AF28CF28E1200D9CF1B
:102D1000E6FFE1CFD9FFE652BEDF0201989798990E
:102D200003015C0E1A6F020E1B6FDF6A100EDF5C70
:102D30000AE2DF50EA6A1A25E96E1B51EA227F0E89
:102D4000EF6EDF2AF3D70201756B010E766FC20EAC
:102D5000776F0201988502017A6B7B6B0201586BD9
:102D60005A6B5B6B010ED56E320ED76ECF0ED66EE0
:102D7000D59E580EE66E020EE66E8BD8E552E552F1
:102D800002019893580EE66E020EE66E82D8E55266
:102D9000E55202019893E552E552E7CFD9FF1200C0
:102DA00082828088949292981200F2920301200EFF
:102DB000166F9F86020198A906D00301E00E136FDB
:102DC000000E146F05D00301C00E136F000E146FB8
:102DD000020198A1987998A706D00301800E116F7F
:102DE000000E126F05D00301A00E116F000E126FBE
:102DF000C9CF17F311C3E9FF12C3EAFF112B000E6D
:102E00001223EF50C96E12009E96C9CF17F303012B
:102E10001651000823E213C3E9FF14C3EAFF132B82
:102E2000000E142317C3EFFF11C3E9FF12C3EAFF1B
:102E3000112B1223EFCF17F317C3C9FF1607165133
:102E40000CE10201020E766F020198939881320E16
:102E5000D76ECF0ED66EF294D58E01D0C96A12000D
:102E6000D9CFE6FFE1CFD9FF020198A10ED0FD0E28
:102E7000DBCFE6FFFE0EDBCFE6FF6EEC21F0E55286
:102E8000E5529D96020198919D86E552E7CFD9FFC4
:102E90001200D9CFE6FFE1CFD9FF020198B332D0BB
:102EA000FD0EDBCFE9FFFE0EDBCFEAFF1E0EE926AB
:102EB000000EEA22EF50020809E1FD0EDBCFE6FF2B
:102EC000FE0EDBCFE6FF69D8E552E552FD0EDBCF03
:102ED000E9FFFE0EDBCFEAFF150EE926000EEA221F
:102EE000EF9EFD0EDBCFE6FFFE0EDBCFE6FFDCEC58
:102EF00020F0E552E5529D960201987798839D86D1
:102F00000201752BE552E7CFD9FF12009D96020111
:102F100098919D861200D9CFE6FFE1CFD9FF00013D
:102F2000166BD950FD0FE96EFF0EDA20EA6E010E26
:102F3000EE1801E1ED5002E1168101D0BA6AD950D4
:102F4000FB0FE96EFF0EDA20EA6E010EEE1801E1CA
:102F5000ED5002E1168301D0B76AD950F90FE96E3E
:102F6000FF0EDA20EA6E010EEE1801E1ED5002E1EB
:102F7000168501D0736AD950F70FE96EFF0EDA207B
:102F8000EA6E010EEE1801E1ED5002E1168701D064
:102F9000706AE552E7CFD9FF1200D9CFE6FFE1CF43
:102FA000D9FFFD0EDBCFE9FFFE0EDBCFEAFF1C0EE3
:102FB000E926000EEA22EF6AFD0EDBCFE9FFFE0EE6
:102FC000DBCFEAFF170EE926000EEA22EF6AC6AE53
:102FD0000ED0C69EFD0EDBCFE9FFFE0EDBCFEAFF73
:102FE000170EE926000EEA22010EEF6E22D0F150F4
:102FF000800B10E0F250080B0DE0FD0EDBCFE9FF77
:10300000FE0EDBCFEAFF170EE926000EEA22020EC3
:10301000EF6E0FD0F0A60DD0909EFD0EDBCFE9FF36
:10302000FE0EDBCFEAFF170EE926000EEA22030EA2
:10303000EF6E250EC614250819E0FD0EDBCFE9FF63
:10304000FE0EDBCFEAFF1C0EE926000EEA22010E7F
:10305000EF6EFD0EDBCFE9FFFE0EDBCFEAFF170EB2
:10306000E926000EEA22C6CFEFFF80D1C55019E055
:10307000FD0EDBCFE9FFFE0EDBCFEAFF1C0EE926DB
:10308000000EEA22020EEF6EFD0EDBCFE9FFFE0E10
:10309000DBCFEAFF170EE926000EEA22C5CFEFFFCD
:1030A00065D1D0BE19D0FD0EDBCFE9FFFE0EDBCF20
:1030B000EAFF1C0EE926000EEA22030EEF6EFD0E5B
:1030C000DBCFE9FFFE0EDBCFEAFF170EE926000E8D
:1030D000EA22D0CFEFFF4AD19DB619D0FD0EDBCF4B
:1030E000E9FFFE0EDBCFEAFF1C0EE926000EEA2206
:1030F000040EEF6EFD0EDBCFE9FFFE0EDBCFEAFF25
:10310000170EE926000EEA229DCFEFFF2FD19C502B
:1031100019E0FD0EDBCFE9FFFE0EDBCFEAFF1C0E50
:10312000E926000EEA22050EEF6EFD0EDBCFE9FF69
:10313000FE0EDBCFEAFF170EE926000EEA229CCF37
:10314000EFFF14D1080E9F5C19E0FD0EDBCFE9FF05
:10315000FE0EDBCFEAFF1C0EE926000EEA22060E69
:10316000EF6EFD0EDBCFE9FFFE0EDBCFEAFF170EA1
:10317000E926000EEA229FCFEFFFF8D0A25019E017
:10318000FD0EDBCFE9FFFE0EDBCFEAFF1C0EE926CA
:10319000000EEA22070EEF6EFD0EDBCFE9FFFE0EFA
:1031A000DBCFEAFF170EE926000EEA22A2CFEFFFDF
:1031B000DDD0A55019E0FD0EDBCFE9FFFE0EDBCF21
:1031C000EAFF1C0EE926000EEA22080EEF6EFD0E45
:1031D000DBCFE9FFFE0EDBCFEAFF170EE926000E7C
:1031E000EA22A5CFEFFFC2D0100EF214100819E0AA
:1031F000FD0EDBCFE9FFFE0EDBCFEAFF1C0EE9265A
:10320000000EEA22090EEF6EFD0EDBCFE9FFFE0E87
:10321000DBCFEAFF170EE926000EEA22F2CFEFFF1E
:10322000A5D0470EF11419E0FD0EDBCFE9FFFE0E2D
:10323000DBCFEAFF1C0EE926000EEA220A0EEF6E33
:10324000FD0EDBCFE9FFFE0EDBCFEAFF170EE9260E
:10325000000EEA22F1CFEFFF89D0C00EF01419E082
:10326000FD0EDBCFE9FFFE0EDBCFEAFF1C0EE926E9
:10327000000EEA220B0EEF6EFD0EDBCFE9FFFE0E15
:10328000DBCFEAFF170EE926000EEA22F0CFEFFFB0
:103290006DD092A819D0FD0EDBCFE9FFFE0EDBCF7B
:1032A000EAFF1C0EE926000EEA220C0EEF6EFD0E60
:1032B000DBCFE9FFFE0EDBCFEAFF170EE926000E9B
:1032C000EA2292CFEFFF52D093B019D0FD0EDBCFA0
:1032D000E9FFFE0EDBCFEAFF1C0EE926000EEA2214
:1032E0000D0EEF6EFD0EDBCFE9FFFE0EDBCFEAFF2A
:1032F000170EE926000EEA2293CFEFFF37D03E0EDD
:1033000094141C0819E0FD0EDBCFE9FFFE0EDBCFA5
:10331000EAFF1C0EE926000EEA220E0EEF6EFD0EED
:10332000DBCFE9FFFE0EDBCFEAFF170EE926000E2A
:10333000EA2294CFEFFF1AD097BE18D0FD0EDBCF54
:10334000E9FFFE0EDBCFEAFF1C0EE926000EEA22A3
:103350000F0EEF6EFD0EDBCFE9FFFE0EDBCFEAFFB7
:10336000170EE926000EEA2297CFEFFFE552E7CFCE
:04337000D9FF12006F
:0C337400D9CFE6FFE1CFD9FF040EE1261F
:10338000030126510BE1F0D8DF6EDF0404E10301F5
:10339000010E266F03D0DF50010800E2D9DAE76E94
:1033A000010EE7CFDBFFDB50000817E2030EDB6AFC
:1033B000010EDB50F36E030EDBCFF4FFF350F45C31
:1033C0000CE2CADAE76E020EE7CFDBFFDBCFE6FFE7
:1033D0000AD8E552030EDB2AEBD7D9CFE1FFE5523D
:1033E000E7CFD9FF1200D9CFE6FFE1CFD9FF030124
:1033F0002D51060A01E18FD0030A68E0060A34E085
:10340000010A25E0030A01E0ABD0FE0EDB502B6E73
:103410002C6AFF0E2B1801E12C5003E1020E2D6FD8
:1034200015D0FE0EDB50410807E10201020EC46F09
:103430000301050E2D6F0AD0FE0EDB504E0806E18B
:103440000201020EC46F0301060E2D6F89D0FE0E1D
:10345000DB50540806E10201C36B0301030E2D6F1C
:1034600002D0010E2D6F7CD00201C3512B6E2C6A4D
:10347000080E2B5C000E2C580AE2C351EA6AA10F19
:10348000E96E020EEA22FE0EDBCFEFFFC32BC35123
:103490002B6E2C6A080E2B1801E12C5016E1A1C2EC
:1034A00099F2A2C29AF2A3C29BF2A4C29CF2A5C254
:1034B0009DF2A6C29EF2A7C29FF2A8C2A0F203018B
:1034C000272B000E2823010E2D6F4AD0020E020179
:1034D000C45D06E1FE0EDB50430802E1C42B1AD0A6
:1034E000030EC45D06E1FE0EDB504B0802E1C42B67
:1034F00011D0040EC45D0BE1FE0EDB500D0807E198
:103500000301292B000E2A23010E2D6F03D0030186
:10351000010E2D6F25D0020E0201C45D06E1FE0EE4
:10352000DB50430802E1C42B1AD0030EC45D06E150
:10353000FE0EDB504B0802E1C42B11D0040EC45D1B
:103540000BE1FE0EDB500D0807E103012B2B000EF3
:103550002C23010E2D6F03D00301010E2D6F00D01F
:10356000E552E7CFD9FF1200D9CFE6FFE1CFD9FF6F
:10357000E65203012E0507E18AD9050EE66E93D9BE
:10358000E55203012E6B2F050DE12F6B0201C66B77
:10359000010EC56FC76BC86BC96B0301296B2A6B22
:1035A0002B6B2C6B0201C60529E10301010E295D7D
:1035B000000E2A5905E30201C66BC76BC86B1DD00C
:1035C000010E2B5D000E2C5904E30201C505C96FE5
:1035D00014D002010A0EC75D000EC8590BE3800E1D
:1035E000C5252B6E2C6A000E2C222B062C5A2BC0C4
:1035F000C9F203D0C72B000EC82309D10301296BE0
:103600002A6B2B6B2C6B0201C551120A01E1FCD015
:10361000030A01E1E2D0010A01E1D6D01F0A01E16B
:10362000C6D0010A01E1B6D0030A01E1A6D0010A21
:1036300001E196D0070A01E186D0010A01E178D0C4
:10364000030A69E0010A5AE00F0A4BE0010A3CE074
:10365000030A2DE0010A1EE0070A0FE0010A09E053
:10366000030A01E0D4D013D90201020EC56FC66B64
:10367000CED0030EC56FC66BCAD0800EE66E290E83
:10368000E66E48D9E552E5520201040EC56F010EFF
:10369000C66FBDD0200EE66E130EE66E3BD9E55226
:1036A000E5520201050EC56F010EC66FB0D0840E43
:1036B000E66E2D0EE66E2ED9E552E5520201060E9B
:1036C000C56F010EC66FA3D0800EE66E2A0EE66EA1
:1036D00021D9E552E5520201070EC56F010EC66FF2
:1036E00096D0200EE66E2B0EE66E14D9E552E5520A
:1036F0000201080EC56F010EC66F89D0840EE66EFA
:103700002D0EE66E07D9E552E5520201090EC56F8E
:10371000010EC66F7CD0200EE66E120EE66EFAD851
:10372000E552E55202010A0EC56F010EC66F6FD059
:10373000E66AE66AEFD8E552E55202010B0EC56F64
:10374000010EC66F64D0800EE66E010EE66EE2D802
:10375000E552E55202010C0EC56F010EC66F57D03F
:10376000800EE66E020EE66ED5D8E552E5520201F5
:103770000D0EC56F010EC66F4AD0800EE66E030EA9
:10378000E66EC8D8E552E55202010E0EC56F010E75
:10379000C66F3DD0010EE66E060EE66EBBD8E55252
:1037A000E55202010F0EC56F010EC66F30D0010E3B
:1037B000E66E100EE66EAED8E552E5520201100E2E
:1037C000C56F010EC66F23D0E66A8BD8E5520201A1
:1037D000110EC56F010EC66F1AD0910EE66E640E03
:1037E000E66E110EE66E0F0EE66E730EE66E550E69
:1037F000E66E1BD8F56E060EE15EF5500201120E64
:10380000C56F010EC66F03D0010EC96F00D0C9513C
:10381000000803E20301010E2F6F0201C95100D01D
:10382000E552E552E7CFD9FF1200D9CFE6FFE1CF4D
:10383000D9FF540EE66E94D8E552430EE66E90D84A
:10384000E552060EE66E8CD8E552FE0EDBCFE6FFA3
:1038500087D8E552FD0EDBCFE6FF82D8E552FC0E9D
:10386000DBCFE6FF7DD8E552FB0EDBCFE6FF78D855
:10387000E552FA0EDBCFE6FF73D8E552F90EDBCF47
:10388000E6FF6ED8E552E552E7CFD9FF12000D0EE4
:10389000E66E66D8E55212000301266B12000301A2
:1038A000265100D01200D9CFE6FFE1CFD9FF520E4A
:1038B000E66E56D8E5524D0EE66E52D8E552200E11
:1038C000E66E4ED8E552FE0EDB50300FE66E48D85D
:1038D000E5520D0EE66E44D8E552E552E7CFD9FF2A
:1038E0001200D9CFE6FFE1CFD9FF4E0EE66E38D8F1
:1038F000E552460EE66E34D8E552010EE66E30D83B
:10390000E552FE0EDBCFE6FF2BD8E552E552E7CFBE
:10391000D9FF1200D9CFE6FFE1CFD9FF430EE66E03
:103920001FD8E552520EE66E1BD8E552020EE66E27
:1039300017D8E552FE0EDBCFE6FF12D8E552FD0E9A
:10394000DBCFE6FF0DD8E552E552E7CFD9FF1200F5
:1039500070EC24F000D01200A6EC24F000D012008D
:10396000D9CFE6FFE1CFD9FFFE0EDBCFE6FFEDECCE
:1039700024F0E552E552E7CFD9FF120060EC24F0C5
:1039800000D0120080EC24F000D01200D9CFE6FF66
:10399000E1CFD9FFFE0EDBCFE6FFCCEC24F0E55201
:0839A000E552E7CFD9FF120048
:0839A800D9CFE6FFE1CFD9FF02
:1039B000E652C80E0101806F816B0E0E846F010EFE
:1039C000856F040E826F836BDF6A8451DF5C10E2C7
:1039D000DF50040DF3CFE9FFF4CFEAFF860EE926AE
:1039E000010EEA22EE6AEE6AEE6AEE6ADF2AEDD78F
:1039F000DA6BDB6BDC6B010EC26EC16A860EC06EC9
:103A00009F9C9E9C9D8C80C1E6FF81C1E6FF14D8DF
:103A1000E552E552E552E552E7CFD9FF1200D9CF82
:103A2000E6FFE1CFD9FFE6525FD89D9CC26AE5521E
:103A3000E552E7CFD9FF1200D9CFE6FFE1CFD9FF9A
:103A4000FD0EDBCF1DF0FE0EDBCF1EF01D5002E1A0
:103A5000190E1E183BE0800E1D1802E10C0E1E18F8
:103A600030E0400E1D1802E1060E1E1825E0200E63
:103A70001D1802E1030E1E181AE0900E1D1802E137
:103A8000010E1E180FE0C80E1D1801E11E5005E0C2
:103A90006A0ECA6EDD0ECB6E1ED06A0ECA6EDD0EC9
:103AA000CB6E19D0520ECA6E8C0ECB6E14D0520E45
:103AB000CA6E450ECB6E0FD0510ECA6E8C0ECB6EF9
:103AC0000AD0510ECA6E450ECB6E05D0500ECA6E8E
:103AD0008C0ECB6E00D0CC6A9F929E929D82CA843F
:103AE000E552E7CFD9FF12009D92CA941200D9CFB8
:103AF000E6FFE1CFD9FF020EE126FE0EDBCF2BF071
:103B000001018451D8802B5412E39D9CFE0EDB04EE
:103B1000E96EEA6AD890E936EA36BE0EE926010E69
:103B2000EA22EECFDEFFEDCFDDFF9D8C02D0DE6A14
:103B3000DD6ADECF2BF0DDCF2CF02BC0F3FF2CC0E5
:103B4000F4FF00D0D9CFE1FFE552E7CFD9FF120053
:103B5000D9CFE6FFE1CFD9FFFD0EDBCF2BF0FE0E74
:103B6000DBCF2CF02D6A2E6A880E206E130E216E8C
:103B7000226A236A2BC01BF02CC01CF02DC01DF044
:103B80002EC01EF0D1EC2CF017C02BF018C02CF07A
:103B900019C02DF01AC02EF0206A080E216E226A7C
:103BA000236A2BC01BF02CC01CF02DC01DF02EC0B2
:103BB0001EF0D3EC25F01BC02BF01CC02CF01DC058
:103BC0002DF01EC02EF02BC0F3FF2CC0F4FF00D050
:103BD000E552E7CFD9FF1200D9CFE6FFE1CFD9FFF9
:103BE000E6529D9C4DC3DFFF9D8CDF5000D0E55217
:103BF000E552E7CFD9FF12009D9C03014D6B9D8CD0
:103C00001200C2821200D9CFE6FFE1CFD9FF050E24
:103C1000E126C450DE6EDD6AD9CFE9FFDACFEAFFD4
:103C2000EE50ED6EEF6AC350DE26000EDD22DECFD1
:103C30002BF0DDCF2CF02D6A2E6A0101DC51040D32
:103C4000F3CFE9FFF4CFEAFF860EE926010EEA2260
:103C50002B50EE262C50EE222D50EE222E50EE222E
:103C6000DC2B8451DC5D04E3DC6BDA2B000EDB2300
:103C7000020EDCC1DBFFDB50040D020EF3CFDBFFD5
:103C8000DB80DB50C26E8251DA5D8351DB5901E289
:103C900083D0030EDB6A040EDB6A030EDBCF2BF04E
:103CA000040EDBCF2CF00101845100012CAE02D0B8
:103CB000D89003D02B5C000E2C583AE2030EDBCFD9
:103CC000E9FF040EDBCFEAFFD890E936EA36D89058
:103CD000E936EA36860EE926010EEA22010185510F
:103CE0001F0BEECF2BF0EECF2CF0EECF2DF0EECF62
:103CF0002EF007E0D8902E322D322C322B32E806EF
:103D0000F9E1030EDBCFE9FF040EDBCFEAFFD89029
:103D1000E936EA36BE0EE926010EEA222BC0EEFF96
:103D20002CC0EDFF030EDB2A040E01E3DB2AB5D71E
:103D3000030EDB6A040EDB6A030EDBCF2BF0040EEE
:103D4000DBCF2CF00101845100012CAE02D0D890C1
:103D500003D02B5C000E2C581AE2030EDBCFE9FFD8
:103D6000040EDBCFEAFFD890E936EA36D890E93680
:103D7000EA36860EE926010EEA22EE6AEE6AEE6A5D
:103D8000EE6A030EDB2A040E01E3DB2AD5D703011A
:103D90004D2B0101DA6BDB6BD9CFE1FFE552E7CFA9
:043DA000D9FF120035
:0C3DA400020179ADDDD1020198A1D9D156
:103DB000780EE66E020EE66E30EC17F0E552E55234
:103DC0008150100B01E0010EE66E5EEC0AF0E55248
:103DD000F2C273F28150400B01E0010E0201F05D6E
:103DE00008E0F22B000EF3238150400B01E0010E9E
:103DF000F06F050EE35D03E1F62B000EF7230201E1
:103E0000D70E5F6F0201E351060A01E148D1030AB0
:103E100001E1DBD0060A01E1A3D0010A6DE0030A4B
:103E200037E0010A01E056D1640EE66E5D0EE66EE3
:103E3000020EE66E5C0EE66E020EE66EAA0EE66EF0
:103E4000E66E58EC04F0F56E070EE15EF550EEC23A
:103E5000E9FFEFC2EAFFD890E936EA36E40EE92638
:103E6000020EEA22EECF2BF0EFCF2CF00201F3513D
:103E70002C18E8AE02D02C3404D02B50F25D2C501C
:103E8000F35905E3EE2B000EEF23010EE36F22D171
:103E9000640EE66E5D0EE66E020EE66E5C0EE66E7B
:103EA000020EE66EBE0EE66EE66E58EC04F0F56E9F
:103EB000070EE15EF550EEC2E9FFEFC2EAFFD890CF
:103EC000E936EA36E40EE926020EEA22EECF2BF0BE
:103ED000EFCF2CF00201F3512C18E8AE02D02C34B5
:103EE00004D02B50F25D2C50F35905E3EE2B000E5D
:103EF000EF23020EE36FEED0640EE66E5D0EE66E0B
:103F0000020EE66E5C0EE66E020EE66EAA0EE66E1F
:103F1000E66E58EC04F0F56E070EE15EF550EEC269
:103F2000E9FFEFC2EAFFD890E936EA36E40EE92667
:103F3000020EEA22EECF2BF0EFCF2CF00201F3516C
:103F40002C18E8AE02D02C3404D02B50F25D2C504B
:103F5000F35905E3EE2B000EEF23030EE36FBAD007
:103F6000640EE66E5D0EE66E020EE66E5C0EE66EAA
:103F7000020EE66EAA0EE66E5F0EE66E58EC04F0D8
:103F8000F56E070EE15EF550EEC2E9FFEFC2EAFF03
:103F9000D890E936EA36E40EE926020EEA22EECFA0
:103FA0002BF0EFCF2CF00201F3512C18E8AE02D029
:103FB0002C3404D02B50F25D2C50F35905E3EE2B3A
:103FC000000EEF23050EE36F85D0640EE66E5D0EE6
:103FD000E66E020EE66E5C0EE66E020EE66E7F0E7A
:103FE000E66EE66E58EC04F0F56E070EE15EF550F5
:103FF0000201D70E5F6FF6C22BF0F7C22CF0200E35
:10400000226E236A2BC01DF02CC01EF0ADEC25F0F3
:1040100019C02BF01AC02CF02B502C1009E1010E06
:10402000E66EA8EC15F0E552F6C2F8F2F7C2F9F226
:104030000A0E02012E6AF8252D6EF9512E22F6C2C3
:104040001DF0F7C21EF02DC022F02EC023F0ADEC03
:1040500025F02EAE04D0196C1A1E000E1A2219C0BB
:104060002BF01AC02CF02B502C1009E1E66AA8ECBA
:1040700015F0E552020E0201F827000EF9230201A5
:10408000F73504E2F651C808000EF75507E2E66A74
:10409000A8EC15F0E5520201060EE36F1BD0640E8A
:1040A000E66E5D0EE66E020EE66E5C0EE66E020ECB
:1040B000E66E7F0EE66EE66E58EC04F0F56E070EC7
:1040C000E15EF55002017F0E5F6FE66AA8EC15F025
:1040D000E55200D0F6C2E6FFF7C2E6FFEEC2E9FF06
:1040E000EFC2EAFFD890E936EA36E40EE926020E7E
:1040F000EA22EECFE6FFEFCFE6FFE3C22BF02C6A19
:104100002BBE2C682BC0E6FF2CC0E6FFF2C2E6FFF8
:10411000F3C2E6FFB80E2D6E550E2E6E2F6A2DC01F
:10412000E6FF2EC0E6FF2FC0E6FFFDEC2BF0F56E9C
:104130000B0EE15EF5506BC2E6FF6AC2E6FF69C294
:10414000E6FF68C2E6FF02EC22F0E552E552E552D6
:10415000E552580EE66E020EE66E49EC17F0E55297
:06416000E55220D612001A
:0A416600000EE96EEA6E0400C0ECE2
:1041700020F0EA2A080EEA5CD8A4B6EF20F012007C
:10418000EF6AE93EC0EF20F01200FF0EE3CF09F026
:1041900009380F0B060FD8B2070F2A0FAD6E4AEC85
:1041A00028F009500F0B060FD8B2070F2A0FAD6E7B
:1041B0004AEC28F0000C1200EACF04F0E9CF05F039
:1041C000FF0EE3CFEAFFFE0EE3CFE9FF98A741D051
:1041D000EECFA0F0EECFA1F0EECFA2F0EECFA3F0A5
:1041E000EECFA4F0EECFA5F0EECFA6F0EECFA7F085
:1041F000EECFA8F0EECFA9F0EECFAAF0EECFABF065
:10420000EECFACF0EECFADF0EECFAEF0EECFAFF044
:10421000EECFB0F0EECFB1F0EECFB2F0EECFB3F024
:10422000EECFB4F0EECFB5F0EECFB6F0EECFB7F004
:10423000EECFB8F0EECFB9F0EECFBAF0EECFBBF0E4
:10424000EECFBCF0EECFBDF0EECFBEF0EECFBFF0C4
:1042500040D0EECF80F0EECF81F0EECF82F0EECF07
:1042600083F0EECF84F0EECF85F0EECF86F0EECF88
:1042700087F0EECF88F0EECF89F0EECF8AF0EECF68
:104280008BF0EECF8CF0EECF8DF0EECF8EF0EECF48
:104290008FF0EECF90F0EECF91F0EECF92F0EECF28
:1042A00093F0EECF94F0EECF95F0EECF96F0EECF08
:1042B00097F0EECF98F0EECF99F0EECF9AF0EECFE8
:1042C0009BF0EECF9CF0EECF9DF0EECF9EF0EECFC8
:1042D0009FF004C0EAFF05C0E9FF120098A1120098
:1042E000EACF04F0E9CF05F0FF0EE3CFEAFFFE0EC0
:1042F000E3CFE9FF98A941D0C0C0EEFFC1C0EEFFF7
:10430000C2C0EEFFC3C0EEFFC4C0EEFFC5C0EEFFEB
:10431000C6C0EEFFC7C0EEFFC8C0EEFFC9C0EEFFCB
:10432000CAC0EEFFCBC0EEFFCCC0EEFFCDC0EEFFAB
:10433000CEC0EEFFCFC0EEFFD0C0EEFFD1C0EEFF8B
:10434000D2C0EEFFD3C0EEFFD4C0EEFFD5C0EEFF6B
:10435000D6C0EEFFD7C0EEFFD8C0EEFFD9C0EEFF4B
:10436000DAC0EEFFDBC0EEFFDCC0EEFFDDC0EEFF2B
:10437000DEC0EEFFDFC0EEFF40D0E0C0EEFFE1C0E8
:10438000EEFFE2C0EEFFE3C0EEFFE4C0EEFFE5C0EB
:10439000EEFFE6C0EEFFE7C0EEFFE8C0EEFFE9C0CB
:1043A000EEFFEAC0EEFFEBC0EEFFECC0EEFFEDC0AB
:1043B000EEFFEEC0EEFFEFC0EEFFF0C0EEFFF1C08B
:1043C000EEFFF2C0EEFFF3C0EEFFF4C0EEFFF5C06B
:1043D000EEFFF6C0EEFFF7C0EEFFF8C0EEFFF9C04B
:1043E000EEFFFAC0EEFFFBC0EEFFFCC0EEFFFDC02B
:1043F000EEFFFEC0EEFFFFC0EEFF04C0EAFF05C007
:10440000E9FF1200F2B4120016500F0AD8B41200DD
:10441000FF0EE3CF0AF0FE0EE3CF0BF0FD0EE3CF6D
:104420000CF0FC0EE3CF0DF00A2A16A08D8E0B2A9D
:1044300016A28F800C2A16A48F860D2A16A68F88A6
:104440000E6A0F6A106A116A55EC22F00A2E2BEFE1
:1044500022F016A08D9E0B2E30EF22F016A28F9028
:104460000C2E35EF22F016A48F9600000D2E3BEF98
:1044700022F016A68F9800000E2E40EF22F0129028
:1044800000000F2E45EF22F012920000102E4AEF8E
:1044900022F012940000112E4FEF22F0129677ECCA
:1044A00022F0133E26EF22F01200D70E136E00000A
:1044B0000000000000006DEC22F0132E57EF22F0F8
:1044C000D70E136E00000000000000006DEC22F01B
:1044D000132E62EF22F000001200000070EF22F0B5
:1044E0000000000000000000000000001200030EA9
:0C44F000146E0000142E79EF22F0120070
:0444FC000301046B49
:10450000056B066B076B0E6B120002C31BF003C337
:104510001CF01D6A1E6A1CAE02D01D681E68200EAB
:10452000206E030E216E226A236AD1EC2CF017C094
:104530001BF018C01CF019C01DF01AC01EF0050EAB
:10454000206E216A226A236AD1EC2CF017C01BF07E
:1045500018C01CF019C01DF01AC01EF0206A080E09
:10456000216E226A236AD3EC25F01BC02BF01CC0FD
:104570002CF0E80E2C02F3CF2CF0030E2B02F3509C
:104580002C26E80E2B02F3CF2BF0F4502C26E80E4D
:10459000226E030E236E2BC01DF02CC01EF0ADEC5E
:1045A00025F01DC02BF01EC02CF02BC0F3FF2CC03B
:1045B000F4FF00D01200D9CFE6FFE1CFD9FF040EFF
:1045C000E12604C31BF005C31CF006C31DF007C39E
:1045D0001EF0200E206E030E216E226A236AD1EC9B
:1045E0002CF017C01BF018C01CF019C01DF01AC029
:1045F0001EF0050E206E216A226A236AD1EC2CF08F
:1046000017C01BF018C01CF019C01DF01AC01EF016
:10461000920E206E1C0E216E226A236AD3EC25F0C6
:10462000E80E206E030E216E226A236AD1EC2CF074
:1046300017C01BF018C01CF019C01DF01AC01EF0E6
:10464000E80E206E030E216E226A236AD3EC25F059
:104650001BC0DEFF1CC0DEFF1DC0DEFF1EC0DDFF75
:10466000DD52DD5204C31BF005C31CF006C31DF070
:1046700007C31EF0200E206E030E216E226A236AED
:10468000D1EC2CF017C01BF018C01CF019C01DF0A5
:104690001AC01EF0050E206E216A226A236AD1EC30
:1046A0002CF017C01BF018C01CF019C01DF01AC068
:1046B0001EF0920E206E1C0E216E226A236AD3EC2D
:1046C00025F0E80E206E030E216E226A236AD1ECDB
:1046D0002CF017C01BF018C01CF019C01DF01AC038
:1046E0001EF0E80E206E030E216E226A236AD3ECC0
:1046F00025F000D0D9CFE1FFE552E7CFD9FF120076
:1047000003010E5108E1086B096B0A6B0B6B0C6B14
:104710000D6B010E0E6F120003010E051EE10CC39E
:104720002BF00DC32CF02D6A2E6A08C31BF009C3B1
:104730001CF00AC31DF00BC31EF02BC020F02CC0D0
:1047400021F02DC022F02EC023F0FEEC2DF01BC076
:1047500000F31CC001F303010E6B120000C3F3FF52
:1047600001C3F4FF00D01200D9CFE6FFE1CFD9FF9B
:10477000FD0EDBCF00F3FE0EDBCF01F3E552E7CFFA
:10478000D9FF12000301046B056B066B076B120067
:10479000D9CFE6FFE1CFD9FF020EE12603010E05D6
:1047A00017E1010EE66E77EC1DF0E552F3CF2BF02A
:1047B000F4CF2CF000012B500301082700012C50EE
:1047C00003010923000E0A230B230C2B0D2340D0D9
:1047D000010EE66E77EC1DF0E55203010051F35C2B
:1047E0002B6E0151F4582C6E2BC0DEFF2CC0DDFF68
:1047F000DECF2BF0DDCF2CF0D8802C5004E7F40E68
:104800002B5CFF0E2C580BE3DECF2DF0DDCF2EF00E
:104810002E3404E22D500C08000E2E5417E2DECF89
:1048200002F3DDCF03F3DECF2BF0DDCF2CF02D6ACA
:104830002E6A2CAE02D02D682E682B5004272C50E7
:1048400005232D5006232E50072302D0026B036B45
:0C485000D9CFE1FFE552E7CFD9FF1200FD
:04485C00150EAF6E18
:10486000AC849D9A9D98AC98AC9E948EAB9CAB9674
:10487000AB8AAB889F9A9D8A03014A694B69949CD5
:10488000AC9CAC969F989D88AC8AAB8E1200150E9E
:104890006F6E6C84A39AA3986C986C9E98846B9CA2
:1048A0006B966B8A6B88A59AA38A03014A694B6948
:1048B00098926C9C6C96A598A3886C8A6B8E12005B
:1048C000D9CFE6FFE1CFD9FFE6529D9ACFC2DFFFF5
:1048D0009D8ADF5000D0E552E552E7CFD9FF1200A4
:1048E000D9CFE6FFE1CFD9FFE652A39ADBC2DFFFC3
:1048F000A38ADF5000D0E552E552E7CFD9FF12007E
:10490000D9CFE6FFE1CFD9FFE6520201CC5103E057
:10491000000E17D016D0CD51EA6A000FE96E010ED5
:10492000EA22EFCFDFFFCF07CD2B1F0ECD179D9AC9
:10493000CE51CD5D02E1010ECC6F9D8ACB6BDF5075
:1049400000D0E552E552E7CFD9FF1200D9CFE6FFFC
:10495000E1CFD9FFE6520201D85103E0000E17D093
:1049600016D0D951EA6A400FE96E010EEA22EFCF64
:10497000DFFFDB07D92B1F0ED917A39ADA51D95DB8
:1049800002E1010ED86FA38AD76BDF5000D0E55249
:10499000E552E7CFD9FF1200D9CFE6FFE1CFD9FF2B
:1049A0000201D25101E0FCD7D551EA6A200FE96E2D
:1049B000010EEA22FE0EDBCFEFFFD62BD52B1F0E0A
:1049C000D5179D98D551D45D02E1010ED26F9D8817
:1049D000D36BE552E7CFD9FF1200D9CFE6FFE1CF85
:1049E000D9FF0201DE5101E0FCD7E151EA6A600F14
:1049F000E96E010EEA22FE0EDBCFEFFFE22BE12B88
:104A00001F0EE117A398E151E05D02E1010EDE6F98
:104A1000A388DF6BE552E7CFD9FF12000201CB512B
:104A200002E09D9A19D0CE51EA6A000FE96E010E9C
:104A3000EA22AECFEFFFABA203D0AB98AB88D02B6E
:104A4000ABB4D12BCF2BCE2B1F0ECE17CE51CD5DBD
:104A500002E1010ECB6FCC6B12000201D75102E0D4
:104A6000A39A19D0DA51EA6A400FE96E010EEA22E0
:104A70006ECFEFFF6BA203D06B986B88DC2B6BB40F
:104A8000DD2BDB2BDA2B1F0EDA17DA51D95D02E1B1
:104A9000010ED76FD86B12000201D35102E09D982E
:104AA00012D0D451EA6A200FE96E010EEA22EF50CB
:104AB000AD6ED607D42B1F0ED417D551D45D02E1AD
:104AC000010ED36FD26B12000201DF5102E0A398F6
:104AD00012D0E051EA6A600FE96E010EEA22EF504F
:104AE0006D6EE207E02B1F0EE017E151E05D02E181
:104AF000010EDF6FDE6B1200D9CFE6FFE1CFD9FFE9
:104B00000201CA5101E110D0CA0506E1FE0EDBCF59
:104B1000E6FF42DFE55208D0020ECA5D05E1FE0E57
:104B2000DBCFE6FF5ADFE552E552E7CFD9FF1200AF
:104B3000269E08D0269E1EAE05D01D6C1E1EE86A5D
:104B40001E22268E1EC018F01DC017F02A6A296A80
:104B50008E0E196E1A6A95EF26F0256A23AEB6EF0F
:104B600025F0226C231EE86A2322251E1EAEBEEF0E
:104B700025F01D6C1E1EE86A1E22251E41EC2EF03B
:104B80001EBECEEF25F025AE000C1D6C1E1EE86A81
:104B90001E22196C1A1EE86A1A22000C25BEC5EFE7
:104BA00025F02688FF0C256AE86A23AEE0EF25F0A1
:104BB000206C211E221E231E212222222322251E9A
:104BC0001EAEEBEF25F01B6C1C1E1D1E1E1E1C22B4
:104BD0001D221E22251EFEEC2DF01EBE02EF26F029
:104BE00025AE000C1B6C1C1E1D1E1E1EE86A1C221E
:104BF0001D221E22176C181E191E1A1E1822192299
:104C00001A22000C25BEF2EF25F02688FF0C1EC0EC
:104C10002AF01DC029F01D502202F4CF1CF0F3CF62
:104C20001BF01E502302F4CF1EF0F3CF1DF0220222
:104C3000F3501C26F4501D22E86A1E22295023023C
:104C4000F3501C26F4501D22E86A1E2223AE2DEFDD
:104C500026F029501D5E2A501E5A2AAE000C225002
:104C60001D5E23501E5A000C1DC029F01D5022024B
:104C7000F4CF1CF0F3CF1BF01E502302F4CF1EF034
:104C8000F3CF1DF02202F3501C26F4501D22E86AD7
:104C90001E2229502302F3501C26F4501D22E86ADC
:104CA0001E22000C266AD1EC26F026B65CEF26F018
:104CB00026A20AD026B403D07F0E1E6E19D0800E15
:104CC0001E6E16D01E6A14D026B0FCD7870E1F6049
:104CD000F1D77E0E1F64F6D7860E1F5C04E0D890D5
:104CE0001E321F2AF9D726A403D01E6C1EAEEAD7A7
:104CF00012007F0E1F6EFF0E1E6E1D6E1C6E1200C8
:104D00007F0E26BEFF0E1F6E02D07F0E1F6E800E1E
:104D10001E6E1D6A1C6AF3D726AE04D0800E1F6E6D
:104D20001E6AF7D71F6A1E6AF4D7185017102A1088
:104D30002910F8E01ABEF0D718BE0CD019501A107E
:104D4000EBE0D89029362A36173618361906D8A03F
:104D50001A06F2D71A50D4E11928D2E029AE11D0A0
:104D60007F0E291402E12AA00CD02A2AE86A172211
:104D7000182207E3D880183217322A32192A192844
:104D8000BFE01950C9E02AC01CF017C01DF018344C
:104D90001E6E19301F6E1E321F9E26BE1F8E7FEFA5
:104DA00026F01E361F3602E32684267E06E1268084
:104DB0001F6A1E6A1D6A1C6A12001F2803E0D88041
:104DC0001E321200D8901E3202E126821200268680
:104DD00012002336243602E3268C267E06E126883E
:104DE000246A236A226A216A1200242803E0D880F8
:0E4DF00023321200D8902332EAE1268A120004
:024DFE00D8CF0C
:104E0000E4FFE0CFE4FFE46EDACFE4FFE2CFDAFFC5
:104E1000E9CFE4FFEACFE4FFF3CFE4FFF4CFE4FF10
:104E200000EE2BF00A0EE80403E3EECFE4FFFBD71D
:104E3000E6529E50200B06E09D50200B03E00EEC46
:104E400025F01AD0A450200B06E0A350200B03E05D
:104E50002DEC25F011D09E50100B06E09D50100B4C
:104E600003E04CEC25F008D0A450100B05E0A35053
:104E7000100B02E064EC25F0F050020B0BE0F05058
:104E8000100B08E0F098E66A6CEC15F0E552F09231
:104E9000F0883CD0A050020B15E0A150020B12E0AC
:104EA000A092A19203014C2B140E4C5D09E1E66A1D
:104EB000030EE66EE8EC09F0E552E55203014C6B97
:104EC000A08224D09D50010B0EE09E50010B0BE000
:104ED0009D909E90E66A010EE66EE8EC09F0E552C0
:104EE000E5529D8013D09E50020B07E09D50020BAF
:104EF00004E09E9201EC1EF009D09E50400B06E0AB
:104F00009D50400B03E09E9C03EC1EF0E55200EE2A
:104F100034F00A0EE80403E3E5CFEDFFFBD7E5CF5D
:104F2000F4FFE5CFF3FFE5CFEAFFE5CFE9FFE5CFFB
:104F3000DAFFE550E5CFE0FFE5CFD8FF1000D9CF8D
:104F4000E6FFE1CFD9FFE652DF6A02017F0E636F11
:104F500063C262F263C261F263C260F263C25FF273
:104F600063C25EF263C25DF263C25CF26B6F6BC2DE
:104F70006AF26BC269F26BC268F26BC267F26BC213
:104F800066F26BC265F26BC264F28C928D928C9069
:104F90008D908C968D968C948D948C9A8D9A8C98FD
:104FA0008D988C9E91908C9C8D9C020179AD5CD0EB
:104FB000020198A158D0780EE66E020EE66E30EC33
:104FC00017F0E552E552010EDF6EDFCFE6FFE66A2D
:104FD0008150080B01E0010EE66EE66A8150040B79
:104FE00001E0010EE66EE66A830E2B6E550E2C6E06
:104FF0002D6A2BC0E6FF2CC0E6FF2DC0E6FFFDECBE
:105000002BF0F56E090EE15EF550DF50030A12E059
:10501000010A0DE0030A08E0010A03E0A2EC2DF00A
:105020000CD0D0EC2DF009D047EC2CF006D0F5ECEC
:105030002AF003D0A2EC2DF000D06BC2E6FF6AC2CA
:10504000E6FF69C2E6FF68C2E6FF02EC22F0E55225
:10505000E552E552E552580EE66E020EE66E49EC58
:1050600017F0E552E552A1D7E552E552E7CFD9FF57
:105070001200ECEC1DF0000904E0C8EC23F0FCEC9D
:105080001DF01200D9CFE6FFE1CFD9FFE552E7CFFF
:04509000D9FF120032
:0C5094009EB802D0FDD7FCD71200D9CF87
:1050A000E6FFE1CFD9FFFE0EDBCFE6FFC5EC20F037
:1050B000E5520D0EAD6EEEDFE552E7CFD9FF1200DF
:1050C000D9CFE6FFE1CFD9FF0201D950FD0F506FD4
:1050D000FF0EDA20516F010EEA6A5025E96E515138
:1050E000EA22EF50E66EC5EC20F0E55250C2E9FF2F
:1050F00051C2EAFFEF50E66EC5EC20F0E5520D0E0E
:10510000AD6EC8DFE552E7CFD9FF1200D9CFE6FF79
:10511000E1CFD9FFFD0EDBCF2BF0FE0EDBCF2CF065
:105120002D6A2BC0E6FF2CC0E6FF2DC0E6FF000E67
:10513000E66E020EE66EB1EC2BF0F56E050EE15E4A
:10514000F550000EE66E020EE66ECAEC2BF0E5524C
:10515000E552F3CF54F2F4CF55F20201553504E293
:1051600054515008000E555503E2500E546F556BC4
:10517000566B576B57515519E8AE02D0553504D0D0
:105180005451565D555157590EE2000E5625E96EA1
:10519000020E5721EA6EEF50AD6E7CDF0201562BF6
:1051A000000E5723E7D7E552E7CFD9FF1200D9CF3A
:1051B000E6FFE1CFD9FF0201526B1A0E525D11E2F8
:1051C000FD0EDBCFE9FFDB2AFE0EDBCFEAFF01E3BA
:1051D000DB2AEF50E66EC5EC20F0E5520201522BBF
:1051E000ECD70D0EAD6E56DFE552E7CFD9FF1200BA
:1051F0000201780E506F020E516F020178510301C7
:10520000466F476B4851461902E14951471918E06A
:10521000020198A502D098950FD048C3E6FFC5ECCF
:1052200020F0E55246C3E6FFC5EC20F0E5520D0E36
:10523000AD6E30DF0201989546C348F347C349F38A
:105240000301482B000E4923493504E24851FF0869
:10525000000E495502E2486B496B1200150EE66ECE
:105260003C0EE66E70EC2DF0E552E552320EE66E25
:105270008DEC2EF0E5521200D9CFE6FFE1CFD9FF39
:10528000FE0EDBCF53F2E552E7CFD9FF1200D9CFA4
:10529000E6FFE1CFD9FF020EE1260F0EE66EFE0E0D
:1052A000DB507F0BFE0BFD0BE66EF10EE66E09EC9C
:1052B0002DF0E552E552E5520A0EE66EABEC2EF00B
:1052C000E552C2EC2EF007EC04F0000901E0FBD738
:1052D00022EC2EF0BFEC2EF0C4502D6E2DC02EF01F
:1052E0002D6AC35000012D102B6E2EC02CF02BC048
:1052F000DEFF2CC0DDFFDECF2BF0DDCF2CF02BC08E
:10530000F3FF2CC0F4FF00D0D9CFE1FFE552E7CF87
:04531000D9FF1200AF
:0C531400D9CFE6FFE1CFD9FFA69EFD0E29
:10532000DBCF2BF0FE0EDBCF2CF02CC02BF02C6A49
:105330002B50AA6EFD0EDB50A96EA680A85000D09F
:10534000E552E7CFD9FF1200D9CFE6FFE1CFD9FF71
:10535000E6520301425126E14551EA6A000FE96E27
:105360000F0EEA22FC0EDBCFEFFF4551E96EEA6A31
:10537000D890E936EA36200EE9260F0EEA22FD0E15
:10538000DBCFEEFFFE0EDBCFEDFF412B452B1F0EDB
:1053900045174551445D02E1010E426F436B010E1A
:1053A000DF6E01D0DF6ADF5000D0E552E552E7CF73
:1053B000D9FF1200D9CFE6FFE1CFD9FF020EE126D7
:1053C0000301435169E1F250800B01E0010EDF6EF1
:1053D000F250400B01E0010EE76E010EE7CFDBFF5C
:1053E000A69EA698A1984451E96EEA6AD890E9363B
:1053F000EA36200EE9260F0EEA22EF50A96E44513C
:10540000E96EEA6AD890E936EA36200EE9260F0EF0
:10541000EA22EECF2BF0EFCF2CF02CC02BF02C6A31
:105420002B50AA6E4451EA6A000FE96E0F0EEA2271
:10543000EF50A86EA684F29EF29C550EA76EAA0E9F
:10544000A76EA682DF50010BF36EF346F346F346D8
:10545000F346F346F346F3467F0EF214F310F26E72
:10546000010EDB50010BF36EF346F346F346F346B1
:10547000F346F346BF0EF214F310F26E4107442BCD
:105480001F0E44174551445D02E1010E436F426B0C
:10549000A1A8FED7A198A694D9CFE1FFE552E7CF06
:0454A000D9FF12001E
:0C54A4000D4552524F5221204E4F20491E
:1054B0004E50555421000D7270732069732025647D
:1054C00020666C79776865656C202564206361735C
:1054D00065202564000D444F4E4520444F4E452025
:1054E000444F4E4521212120464F5220544845200B
:1054F000484F52444521212121000D4E6F772063F2
:105500006C6F73696E6720666F7220612073686FBD
:105510006F74000D4E6F77206F70656E696E672037
:10552000666F7220612073686F6F74000D54686538
:1055300020636F756E746572206F6E207269676884
:1055400074206973202564000D54686520636F75AD
:105550006E746572206F6E206C65667420697320AE
:10556000256400446F6E650D000D43616C63756CBE
:105570006174696E67204779726F20426961732E8A
:105580002E2E000D4175746F5F73656C65637469D1
:105590006F6E31202564206175746F73656C65636F
:1055A0007432202564206175746F2073656C6563A7
:1055B00074206973202564000D636F756E746572C5
:1055C0005F6C2025642063617365202564206E75FF
:1055D0006D62657220746F20676574202564206396
:0A55E0006F756E746572202564007B
:0655EA00D9CFE6FFE1CF7E
:1055F000D9FF020EE126DF6A010EDB6A020179ADF6
:105600005BD0020198A157D0780EE66E020EE66ECE
:1056100030EC17F0E552E5528150100B01E0010E1D
:10562000E66E5EEC0AF0E5526BC2E6FF6AC2E6FF88
:1056300069C2E6FF68C2E6FF02EC22F0E552E552DD
:10564000E552E5520201FD2B000EFE23FF5102E15F
:10565000918002D091908D90FE3504E2FD510008BA
:10566000000EFE551BE2D890FE5104E6D00EFD5D03
:10567000070EFE5913E2640EE66E5D0EE66E020E34
:10568000E66E5C0EE66E020EE66EE66AE66A58ECC0
:1056900004F0F56E070EE15EF55003D00201FE0E38
:1056A000666F0201666B580EE66E020EE66E49ECFE
:1056B00017F0E552E552A2D7D9CFE1FFE552E7CF87
:0456C000D9FF1200FC
:0C56C4001E0EF66E080EF76E000EF86E5B
:1056D00003010900F550216F0900F550226F03E125
:1056E000216701D03DD00900F5501C6F0900F5502D
:1056F0001D6F0900F5501E6F09000900F550E96E95
:105700000900F550EA6E090009000900F5501F6F05
:105710000900F550206F09000900F6CF23F3F7CFF9
:1057200024F3F8CF25F31CC3F6FF1DC3F7FF1EC3F8
:10573000F8FF03011F5302E1205307E00900F55071
:10574000EE6E1F07F8E22007F9D723C3F6FF24C344
:10575000F7FF25C3F8FF03012107000E225BBFD727
:02576000120035
:0E576200FB0EE3CFF6FFFC0EE3CFF7FFFD0ECC
:10577000E3CFF8FFFE0EE3CFE9FFFF0EE3CFEAFF32
:10578000E9CFF3FFEACFF4FF0900F5CFEFFFEE66B4
:10579000FBD71200FE0EE3CFE9FFFF0EE3CFEAFFD7
:1057A000F36AF46AEE5203E0F34AF42AFBD71200DC
:1057B000FF0EE3CFF8FFE552FF0EE3CFF7FFE55210
:1057C000FF0EE3CFF6FFE552E66AE66AE66A0900F5
:1057D000F55209E0FD0EE32A05E1FE0EE32A02E19F
:1057E000FF0EE32AF4D7FD0EE3CF1CF0FE0EE3CF4D
:0A57F0001DF0FF0EE3CF1EF01200C3
:0657FA00D9CFE6FFDACF73
:10580000E6FFE1CFD9FFE2CFDAFFE652E652E652F9
:10581000E652D950FB0F2B6EFF0EDA202C6E2BC0F8
:10582000DEFFDD6EDECFE6FFDDCFE6FFFB0EDBCF7A
:10583000E6FFFC0EDBCFE6FFFD0EDBCFE6FF4AC343
:10584000E6FF4BC3E6FF4FEC0BF0F56E070EE15C95
:1058500002E2E16AE552E16EF550020EF3CFDBFFA2
:10586000030EF4CFDBFF020EDBCF2BF0030EDBCFFA
:105870002CF02BC0F3FF2CC0F4FFD9CFE1FFDACF1F
:0E588000E2FFE552E5CFDAFFE7CFD9FF1200D5
:02588E00020115
:1058900079AD44D0020198A140D0780EE66E020E98
:1058A000E66E30EC17F0E552E5528150100B01E046
:1058B000010EE66E5EEC0AF0E5520101FD5102E1D7
:1058C000918002D091908D90640EE66E5D0EE66E32
:1058D000020EE66E5C0EE66E020EE66EFE0EE66EE2
:1058E000E66E58EC04F0F56E070EE15EF5506BC203
:1058F000E6FF6AC2E6FF69C2E6FF68C2E6FF02ECA5
:1059000022F0E552E552E552E552580EE66E020EDF
:0E591000E66E49EC17F0E552E552B9D71200E9
:02591E00D9CFDF
:10592000E6FFDACFE6FFE1CFD9FFE2CFDAFFFB0EE9
:10593000DBCF2BF0FC0EDBCF2CF00001800E2C1403
:105940001AE1FB0EDBCFE9FFFC0EDBCFEAFFEECF67
:10595000F3FFEDCFF4FFEE2A000EEF22F3CFE9FFC5
:10596000F4CFEAFFFD0EDBCFEFFFEF502C6AF36EB2
:105970002CC0F4FF10D0FB0EDB50FE0806E1FD0E3C
:10598000DBCFE6FF9DEC2EF005D0FD0EDBCFE6FF72
:105990007CEC25F0E552E552E5CFDAFFE7CFD9FF01
:0259A0001200F3
:0E59A2001B502002F3CF17F0F4CF18F02102B3
:1059B000F3501826000EF420196E1B502202F350EB
:1059C0001926000EF4201A6E1B502302F3501A26DB
:1059D0001C502002F3501826F4501922000E1A22EF
:1059E0001C502102F3501926F4501A221C50220296
:1059F000F3501A261D502002F3501926F4501A2293
:105A00001D502102F3501A261E502002F3501A2670
:025A1000120082
:0E5A1200D9CFE6FFDACFE6FFE1CFD9FFE2CF32
:105A2000DAFFC26AC16AC06AFC0EDB407F0B3C0B26
:105A3000C26EFB0EDB50C16EFC0EDB38F00B300B80
:105A4000C112FD0EDB50800BC06EFD0EDB380F0B5C
:105A5000070BC012FD0EDB50040DF350380BC012C3
:105A6000FC0EDBAE03D09E9C9D8CF28CC280E55276
:0A5A7000E5CFDAFFE7CFD9FF1200FF
:065A7A00D9CFE6FFDACFF0
:105A8000E6FFE1CFD9FFE2CFDAFF3F0EC716C66AC5
:105A9000FD0EDB50C612FB0EDB50C712FC0EDB50B6
:105AA000030A09E0010A04E0020A06E1C78C04D0F7
:105AB000C78CC68801D0C688FD0EDB50050A03E0FE
:105AC000010A04E1978E9486C79E01D09496949A19
:105AD0009488C68AE552E5CFDAFFE7CFD9FF1200F6
:105AE000D9CFE6FFDACFE6FFE1CFD9FFE2CFDAFF89
:105AF000AC6AAB6AFD0EDBB0AC88DBA202D0AC8C2A
:105B0000AB8CDBB4AC8EDBA602D0AB8801D0AB8A09
:105B1000DBA802D0AC8401D0AC94DBAC02D09D8A6F
:105B200001D09D9ADBAE02D09D8801D09D98FC0EDD
:105B3000DB50AF6EAC8AAB8EE552E5CFDAFFE7CF34
:045B4000D9FF120077
:0C5B4400020179AD2AD0020198A126D000
:105B5000780EE66E020EE66E30EC17F0E552E55276
:105B60008150100B01E0010EE66E5EEC0AF0E5528A
:105B70006BC2E6FF6AC2E6FF69C2E6FF68C2E6FFE3
:105B800002EC22F0E552E552E552E552580EE66E7F
:105B9000020EE66E49EC17F0E552E552D3D712003B
:105BA000020179AD2AD0020198A126D0780EE66EC6
:105BB000020EE66E30EC17F0E552E5528150100B04
:105BC00001E0010EE66E5EEC0AF0E5526BC2E6FF04
:105BD0006AC2E6FF69C2E6FF68C2E6FF02EC22F095
:105BE000E552E552E552E552580EE66E020EE66EBB
:0C5BF00049EC17F0E552E552D3D7120043
:045BFC001A6A196A9E
:105C0000186A176A200EE76ED8901B361C361D36B0
:105C10001E361736183619361A362050175C2150A2
:105C200018582250195823501A5809E32050175E6B
:105C30002150185A2250195A23501A5A1B2AE72E5B
:045C4000E4D7120093
:0C5C4400D9CFE6FFDACFE6FFE1CFD9FFB1
:105C5000E2CFDAFFE652E652C350DF6E010EC4CF48
:105C6000DBFFDECF2BF0DDCF2CF02BC0F3FF2CC001
:105C7000F4FFE552E552E552E5CFDAFFE7CFD9FF71
:025C8000120010
:0E5C82001A6A196A100EE76ED8901D361E368B
:105C900019361A362250195C23501A5805E322503F
:0E5CA000195E23501A5A1D2AE72EF0D7120063
:025CAE0087EC81
:105CB00016F04AEC11F002019891020198A107D068
:105CC000C1EC11F0020179AD02D09FEC27F039EC64
:065CD00028F0F3D71200DA
:0A5CD600F36AF46AFF0EE124E96EA0
:105CE000FF0EE220EA6EED6607D02F0EEF6404D0BF
:0A5CF0003A0EEF6001D0F32A120013
:065CFA001EEE00F02EEE8C
:105D000000F0F86A269CA68EA69CB3EC20F062EC0C
:0A5D10002BF057EC2EF0F9D712002B
:065D1A00FF0EE350356EA0
:105D2000480E01D04C0EE76EE72EFED7E76AE72E4D
:0A5D3000FED7352EF7D70000120051
:065D3A00FF0EE350ACBABD
:105D400004D0AF6AAB8EAC8A949CACA2FED7AD6E89
:065D5000F36EF46A12007C
:0A5D5600FF0EE350E84E12000000BB
:0C5D600000D000D000D0E82EFAD71200CE
:045D6C00303132336D
:0D5D7000343536373839616263646566008A
:015D7D000025
:025D7E00C290D1
:045D80009D9C1200D4
:045D8400C2821200C5
:085D8800000100000000000012
:105D90000000000000000000000000000000000003
:085DA0000000000000000000FB
:085DA8000000010000000000F2
:105DB00000010000000001000000000000010000E0
:015DC00000E2
:045DC10000000000DE
:055DC5000000010000D8
:065DCA00000000000000D3
:045DD00000010101CC
:065DD400000000000000C9
:035DDA00000000C6
:035DDD00000500BE
:105DE00030003A004B007800000000000000000086
:045DF00000000000AF
:015DF40000AE
:095DF500000000000000000000A5
:00000001FF
